:020000021000EC
:10F0000080FF0020D5290200FD2902000D330200F7
:10F01000012A0200032A0200052A02000000000063
:10F02000000000000000000000000000790604005D
:10F03000092A020000000000990604000D2A0200BF
:10F04000898A03000F2A02005917050001A703004F
:10F0500025A703000F2A020021C90400D1CA040019
:10F060000F2A02000F2A02000F2A02000F2A0200B4
:10F070000F2A02000F2A02000F2A02000F2A0200A4
:10F080000F2A0200215002000F2A02000F2A02005C
:10F09000992E02000F2A02000D8D03000F2A020094
:10F0A0000F2A02000F2A02000F2A02000F2A020074
:10F0B0000F2A02000F2A02000000000000000000DA
:10F0C0000F2A02000F2A02000F2A020049A703009C
:10F0D0000F2A02000F2A0200455F03000000000013
:10F0E0000000000000000000000000000000000020
:10F0F0000000000000000000000000000000000010
:10F1000000000000000000000000000000000000FF
:10F1100000000000000000000000000000000000EF
:10F1200000000000000000000000000000000000DF
:10F1300000000000000000000000000000000000CF
:10F1400000000000000000000000000000000000BF
:10F1500000000000000000000000000000000000AF
:10F16000000000000000000000000000000000009F
:10F17000000000000000000000000000000000008F
:10F18000000000000000000000000000000000007F
:10F19000000000000000000000000000000000006F
:10F1A000000000000000000000000000000000005F
:10F1B000000000000000000000000000000000004F
:10F1C000000000000000000000000000000000003F
:10F1D000000000000000000000000000000000002F
:10F1E000000000000000000000000000000000001F
:10F1F000000000000000000000000000000000000F
:10F2000010B5054C237833B9044B13B10448AFF360
:10F2100000800123237010BD402900200000000061
:10F220001C72060008B5034B1BB103490348AFF33A
:10F23000008008BD00000000442900201C72060068
:10F24000154B002B08BF134B9D46A3F5803A0021B8
:10F250008B460F461348144A121A34F034FC0F4BF5
:10F26000002B00D098470E4B002B00D09847002071
:10F27000002104000D000D48002802D00C4834F095
:10F280005EF934F02BFA2000290008F035FE34F046
:10F2900063F900BF0000080080FF002000000000AC
:10F2A000000000004029002074FA00203F350500CE
:10F2B00000000000044B054A1A60054B054A1A601D
:10F2C000054B064A1A60704718260020005A0500B0
:10F2D0001C2600201A5A050014260020205A05007A
:10F2E00008B5FFF7E7FF6C2006F09CF9054A0649D0
:10F2F0001060064A0968116018B1BDE8084000F0C6
:10F30000F1B908BD5C2900204C5C0500642900208F
:10F31000012070470120704701207047012070478D
:10F320000120704700207047002070470020704780
:10F330000020704700207047002070470020704771
:10F340000623036078230B607047002303700B6073
:10F350004FF4006313607047002303604FF4C02331
:10F360000B607047054A06490023136053600B6029
:10F370004B60044B044A1A60704700BF5C290020B0
:10F3800064290020C4DE0020E1F20100032380F89C
:10F3900030307047032303717047022380F8303008
:10F3A00001207047704700000B4B10B503F10802B5
:10F3B000026003F16002A4330446826040F82C3FEF
:10F3C00001F0F2F904F1080002F0EAF8204601F039
:10F3D00035FF204610BD00BF005D0500A0F108000C
:10F3E000FFF7E2BFA0F12C00FFF7DEBF10B5044627
:10F3F00033F0E4F9204610BD10B50446FFF7D4FF02
:10F40000204633F0DBF9204610BDA0F12C00FFF7B9
:10F41000F3BFA0F10800FFF7EFBF000010B5064AE8
:10F420000221044601F06AFFC82806BF012084F8C3
:10F430003000002010BD00BF4C5A0500A0F12C0088
:10F44000FFF7ECBFB0F8682010B54FF6FF739A4293
:10F45000044618BFA0F86830034A022101F06CFF8F
:10F46000002384F8303010BD4C5A0500A0F12C0068
:10F47000FFF7E8BF10B504460649012003F00CF879
:10F48000B4F86810204601F0D2FF4FF6FF73A4F8DD
:10F49000683010BD815C0500A0F10800FFF7EABFED
:10F4A00010B504460849012002F0F6FFB4F86820C0
:10F4B0004FF6FF739A4206D10122216D204601F0DA
:10F4C00095FFA4F8680010BD505C0500A0F108008D
:10F4D000FFF7E6BF30B54B68104A43F00F03934285
:10F4E00085B004460D4613D10D49012002F0D4FF2A
:10F4F0004FF45933029304F14C03039302AB00938E
:10F50000C822084B2946204601F09EFF05B030BDB9
:10F510000549012002F0C0FFF8E700BF1F000164A9
:10F52000B55A050080290020E15A050000B5B0F861
:10F5300068208A4289B014D1836C05930B4B026C0E
:10F54000039305AB07920493426C094B0692009318
:10F55000084A03AB4FF4B23101F0C0FF09B05DF8C7
:10F5600004FB0549012002F097FFF7E7016403005F
:10F57000C429002080290020B45C0500A0F1080007
:10F58000FFF7D4BF30B50D460749044603C985B01F
:10F5900002AB83E8030000932946044B204601F0A8
:10F5A00053FF05B030BD00BF78290020802900201E
:10F5B000F0B54A68204B42F00F029A428DB00446E3
:10F5C0000E4636D11D49012002F066FF0DF10E03F3
:10F5D000059303238DF81C30636D0493184B089337
:10F5E000184B0A9304AB0B9308AB0093042205ABB2
:10F5F00000250127E16D069504F10800099702F046
:10F600000BFA20F002039BB2C82B02460DD06428EF
:10F610000BD00D49384602F03FFF4FF4CA72314615
:10F620002046FFF7AFFF0DB0F0BDC4E91855C82262
:10F63000F5E74FF4CA72F4E71F000064505A050062
:10F64000345A050006000300815A050002230371A5
:10F650000120704770B50D468AB004461C49012050
:10F6600002F01AFF6B681B4A43F00F0393422BD141
:10F670000023CDE9033302238DF81430636D029328
:10F68000154B0693154B089302AB099306AB0093F9
:10F69000012603AB0522E16D079604F1080002F094
:10F6A000BBF920F002039BB2C82B05D1C822294622
:10F6B0002046FFF767FF05E06428F7D00849304689
:10F6C00002F0EAFE0AB070BD4FF4CA72EFE700BF65
:10F6D000E05B05001F000064345A050006000300CB
:10F6E000055C050010B501220446002101F0CCFDA7
:10F6F0000122002104F1080001F0F2FF012210496B
:10F7000004F12C0001F040F80E4B03F108022260D6
:10F7100003F16002A433E3624FF47A73A36500231C
:10F72000C4E91033A3640A210D23C4E91413064B62
:10F73000E3644FF6FF73A260A4F86830204610BD62
:10F74000EC5C0500005D0500F75C050000000000B2
:10F750002DE9F347036E426EA1EB030A0446CDE99F
:10F7600000A20D460A4601201D4902F095FED4E98B
:10F770001838434526D0504633F07AF906464046BD
:10F780000F4633F075F912A3D3E90023804689466A
:10F7900033F0E8F902460B463046394633F054FC64
:10F7A00068B90DA3D3E900234046494633F0DAF99E
:10F7B00002460B463046394633F064FC10B1236CE8
:10F7C00001332364C4E9185A02B0BDE8F08700BFD2
:10F7D000666666666666EE3FCDCCCCCCCCCCF03FA0
:10F7E000255C05000A88836C13448364704700001D
:10F7F00038B5090C43F6024399420446154607D032
:10F8000043F60253994203D043F60233994213D18F
:10F81000284601F089FC284601F0BAFC83888BB1A8
:10F820000546204655F8041BFFF792FF294620465F
:10F83000BDE83840FFF7D6BF03490120BDE8384096
:10F8400002F02ABE38BD00BFCB5C0500A0F1080065
:10F85000FFF7CEBF70B504460D4609B9002070BD54
:10F860000D4E2846314634F0F9FA20B90B4BE365CA
:10F87000E6640120F3E70A4E2846314634F0EEFAFA
:10F8800008B9084BF3E7084E2846314634F0E6FA4B
:10F890000028E3D1054BEAE7BC5D05001F00023BF1
:10F8A000C55D05001F00023CCF5D05001F00023D45
:10F8B000F0B50E4B85B06A460D4603F110071646AB
:10F8C00018685968144603C40833BB422246F7D16E
:10F8D000002336F81320AA4205D00133082BF8D1B3
:10F8E000002005B0F0BD0120FBE700BF3C5A050039
:10F8F0000023C0E910338364C0E918337047000067
:10F900004B6870B51646274A43F00F0393420446EE
:10F910000D4643D12449012002F0BEFD2349204673
:10F9200001F02AFDC8280BD12149012002F0B4FDC5
:10F9300040F2F71229462046BDE87040FFF722BE8C
:10F9400008364FF4C841304601F0EEFB304601F076
:10F950001FFCD0E90013002B866806DD23652046D6
:10F96000FFF778FF40B9134900E01349012002F086
:10F9700093FD4FF4C872DDE731462046FFF798FF4C
:10F9800050B1204666652946C822FFF7FBFD204698
:10F99000BDE87040FFF7ACBF0849E7E740F2F71257
:10F9A000CAE700BF1F000164015B05001F0000647F
:10F9B0002D5B0500945B0500745B0500B65B0500DC
:10F9C000F7B5002407460DF1040C20461D88AC4213
:10F9D0004FEA840614D25D6855F82450019500253D
:10F9E00006EB050E724506D8814282BF15F80CE081
:10F9F00007F800E001300135042DF1D10134E5E7CD
:10FA000002AC9B6844F8043D0023F518AA4204D8D0
:10FA1000814282BF1D5D3D5401300133042BF4D17E
:10FA200003B0F0BDF7B502AD0746186845F8040D00
:10FA300000200446A24204D8814282BF665D3E5443
:10FA400001300134042CF5D100259E88B54215D231
:10FA50009E68944236F8156003D388423CBF3E54FA
:10FA6000013004F1010C944505D3814282BFC6F3F5
:10FA700007263E54013002340135E6E703B0F0BDFD
:10FA8000F7B502AD0646586845F8040D0020044657
:10FA9000A24204D8814282BF675D375401300134ED
:10FAA000042CF5D11D6802AB43F8045DA24206D8D0
:10FAB000814281BF1D1915F8045C355401300134B1
:10FAC000082CF3D103B0F0BDF7B502AE0546986837
:10FAD00046F8040D00200446A24204D8814282BFA9
:10FAE000A75D2F5401300134042CF5D102AE5F68BC
:10FAF00046F8047DA24206D8814281BF371917F823
:10FB0000047C2F5401300134082CF3D11E6802AB61
:10FB100043F8046DA24206D8814281BF1E1916F82F
:10FB2000086C2E54013001340C2CF3D103B0F0BD1D
:10FB3000F7B5D3E9006702AD65E9026700231C460B
:10FB4000A24204D8994282BF665DC6540133013493
:10FB5000082CF5D1184603B0F0BDF7B502AD064646
:10FB6000586845F8040D00200446A24204D881429A
:10FB700082BF675D375401300134042CF5D11D6814
:10FB800002AB43F8045DA24206D8814281BF1D1931
:10FB900015F8045C355401300134082CF3D103B05E
:10FBA000F0BD8389808803440C205843043070479B
:10FBB0008389808803440C2058430430704783892C
:10FBC0008288808A134418440C23584304307047B9
:10FBD000B0F5E06F04D005D840F20913984209D17E
:10FBE00008207047B0F5785FFAD0B0F5C84F01D162
:10FBF0000C2070474FF0FF3070470000B0F5E06F09
:10FC000070B513D00A4C00220C2505FB02F31E5BD5
:10FC1000864206D123445E688E4202D19B681888D2
:10FC200070BD0132432AF0D10020F9E70420F7E744
:10FC3000506A0500362070474D20704736207047C7
:10FC400013B50446082101F06FFA6168082268467E
:10FC500033F015FFDDE9000102B010BDB0F5785FAB
:10FC600010B502460C467DD026D843F602339842A2
:10FC700016D00DD840F20913984200F08180B0F5FB
:10FC8000E06F78D00120404902F006FC002029E016
:10FC900043F60243984203D043F602539842F1D10F
:10FCA0001146204601F040FA204601F071FA83889F
:10FCB0000C205843043015E044F20263984230D0DF
:10FCC00011D8B0F5804F20D044F201339842D9D1F9
:10FCD0000146204601F028FA204601F059FA008832
:10FCE0000130800010BD44F2046188422FD024D33B
:10FCF000B0F5C84FC6D146F20141204601F014FAD2
:10FD0000204601F045FA0C20ECE740F203212046A2
:10FD100001F00AFA204601F03BFA808802304000E8
:10FD2000E0E7204644F2036101F0FEF9204601F0CD
:10FD30002FFABDE81040FFF734BF204601F0F4F978
:10FD4000204601F025FABDE81040FFF731BF2046FC
:10FD5000194601F0E9F9204601F01AFABDE8104011
:10FD6000FFF72DBF43F60161204601F0DDF9204683
:10FD700001F00EFA02E00846FFF762FF0820B1E743
:10FD800040F20111F0E700BFF45F050038B50388C9
:10FD90008B4205460C4604D801225E21034805F03B
:10FDA0007DFC6B680C2000FB043038BD0466050048
:10FDB0002DE9F04F85B091469A461A6804AB0024AD
:10FDC00043F8042D074688462546A94504D8A04592
:10FDD00082BFEA5C3A5501340135042DF5D10AF1B0
:10FDE0000403002600930DF10C0BBAF804309E4278
:10FDF00046D231460098FFF7C9FF036803930023FA
:10FE0000EA184A4505D3A04582BF13F80B203A559E
:10FE100001340133042BF3D12A1D3146009801929D
:10FE2000FFF7B4FF019A43680393ABEB050105F1BB
:10FE30000803914506D8A04581BF881810F8040C26
:10FE40003855013401329A42F3D13146009801937A
:10FE5000FFF79CFF019B8268039205F10C02ABEB5C
:10FE60000505994506D8A04581BFE91811F8081C79
:10FE70003955013401339A42F3D101361546B4E7BE
:10FE8000204605B0BDE8F08F2DE9F04F85B09146D2
:10FE90009A461A6804AB002443F8042D07468846A6
:10FEA0002546A94504D8A04582BFEA5C3A550134ED
:10FEB0000135042DF5D10AF10403002600930DF15C
:10FEC0000C0BBAF804309E4246D231460098FFF738
:10FED0005DFF036803930023EA184A4505D3A04554
:10FEE00082BF13F80B203A5501340133042BF3D1B0
:10FEF0002A1D314600980192FFF748FF019A436896
:10FF00000393ABEB050105F10803914506D8A04525
:10FF100081BF881810F8040C3855013401329A4218
:10FF2000F3D1314600980193FFF730FF019B8268BF
:10FF3000039205F10C02ABEB0505994506D8A045E7
:10FF400081BFE91811F8081C3955013401339A4270
:10FF5000F3D101361546B4E7204605B0BDE8F08F71
:10FF60002DE9F04F87B0904601931A6806AB002444
:10FF700043F8042D06460F462546A84504D8A74257
:10FF800082BFEA5C325501340135042DF5D1019B65
:10FF900004334FF0000A02930DF1140B019B9A8871
:10FFA000924559D30C3305F108094FF0000B6D420F
:10FFB00002930DF1140AA9F108030393019B9A8996
:10FFC000934580F0918059460298FFF7DFFE039B2E
:10FFD0000268059200229918884505D8A74282BF79
:10FFE00012F80A10315501340132042AF3D1A9F173
:10FFF0000403594602980393FFF7C8FE039B426827
:020000022000DC
:1000000005920AEB0502984506D8A74281BFD11890
:1000100011F8041C3155013401334B45F3D15946D5
:100020000298FFF7B3FE8368059309F104024B467B
:100030000AEB0501984506D8A74281BFC81810F8F9
:10004000080C3055013401339342F3D10BF1010B0D
:1000500009F10C090C3DAEE751460298FFF796FEF8
:10006000026805920022A918884505D8A74282BFD8
:1000700012F80B10315501340132042AF3D12A1D34
:10008000514602980392FFF781FE039A4168059159
:1000900005F10809ABEB0501904506D8A74281BFE1
:1000A000881810F8040C3055013401329145F3D111
:1000B00051460298FFF76AFE8268059205F10C022C
:1000C000ABEB0505C84507D8A74281BF05EB090181
:1000D00011F8081C3155013409F101099145F1D19C
:1000E0000AF1010A4D4659E7204607B0BDE8F08FF6
:1000F0002DE9F04F87B0904601931A6806AB0024B3
:1001000043F8042D06460F462546A84504D8A742C5
:1001100082BFEA5C325501340135042DF5D1019BD3
:1001200004334FF0000A02930DF1140B019B9A88DF
:10013000924559D30C3305F108094FF0000B6D427D
:1001400002930DF1140AA9F108030393019B9A8904
:10015000934580F0918059460298FFF717FE039B64
:100160000268059200229918884505D8A74282BFE7
:1001700012F80A10315501340132042AF3D1A9F1E1
:100180000403594602980393FFF700FE039B42685D
:1001900005920AEB0502984506D8A74281BFD118FF
:1001A00011F8041C3155013401334B45F3D1594644
:1001B0000298FFF7EBFD8368059309F104024B46B3
:1001C0000AEB0501984506D8A74281BFC81810F868
:1001D000080C3055013401339342F3D10BF1010B7C
:1001E00009F10C090C3DAEE751460298FFF7CEFD30
:1001F000026805920022A918884505D8A74282BF47
:1002000012F80B10315501340132042AF3D12A1DA2
:10021000514602980392FFF7B9FD039A4168059190
:1002200005F10809ABEB0501904506D8A74281BF4F
:10023000881810F8040C3055013401329145F3D17F
:1002400051460298FFF7A2FD8268059205F10C0263
:10025000ABEB0505C84507D8A74281BF05EB0901EF
:1002600011F8081C3155013409F101099145F1D10A
:100270000AF1010A4D4659E7204607B0BDE8F08F64
:100280002DE9F04F87B0904601931A6806AB002421
:1002900043F8042D06460F462546A84504D8A74234
:1002A00082BFEA5C325501340135042DF5D1019B42
:1002B0004FF0000903F1040A0DF1140B019B9B8818
:1002C00099456AD3019B0C3305F108094FF0000BE7
:1002D0006D4202930DF1140A019A92899345A9F196
:1002E0000803C0F0A280019B1433C9F108054FF048
:1002F000000B02930DF1140AA9F108030393019B6B
:100300009A8A934580F0DB8059460298FFF73EFDBC
:10031000039B0268059200229918884505D8A742D8
:1003200082BF12F80A10315501340132042AF3D188
:10033000A9F10403594602980393FFF727FD039B95
:10034000426805920AEB0502984506D8A74281BF8C
:10035000D11811F8041C3155013401334B45F3D148
:1003600059460298FFF712FD8368059309F10402CC
:100370004B460AEB0501984506D8A74281BFC8182D
:1003800010F8080C3055013401339A42F3D10BF1C7
:10039000010B09F10C090C3DAEE749465046FFF749
:1003A000F5FC036805930023EA18424505D3A742EC
:1003B00082BF13F80B20325501340133042BF3D1E3
:1003C0002A1D494650460292FFF7E0FC029A436814
:1003D0000593ABEB050105F10803904506D8A7424C
:1003E00081BF881810F8040C3055013401329A424C
:1003F000F3D1494650460293FFF7C8FC029B82683E
:10040000059205F10C02ABEB0505984506D8A7420D
:1004100081BFE91811F8081C3155013401339A42A3
:10042000F3D109F10109154648E7594602980393AB
:10043000FFF7ACFC039B0268059200229918414526
:1004400005D3A74282BF12F80A1031550134013298
:10045000042AF3D1A9F10403594602980393FFF744
:1004600095FC039B426805920AEB0502984506D865
:10047000A74281BFD11811F8041C31550134013352
:100480009945F3D159460298FFF780FC836805939C
:1004900009F104024B460AEB0501984506D8A7422C
:1004A00081BFC81810F8080C3055013401339A4246
:1004B000F3D10BF1010B09F10C090C3D0CE72046BF
:1004C00007B0BDE8F08F2DE9F04F85B091469A4610
:1004D0001A6804AB002443F8042D074688462546D5
:1004E000A94504D8A04582BFEA5C3A5501340135DC
:1004F000042DF5D10AF10403002600930DF10C0B35
:10050000BAF804309E4246D231460098FFF73EFCCE
:10051000036803930023EA184A4505D3A04582BF28
:1005200013F80B203A5501340133042BF3D12A1D63
:10053000314600980192FFF729FC019A4368039322
:10054000ABEB050105F10803914506D8A04581BF35
:10055000881810F8040C3855013401329A42F3D14E
:10056000314600980193FFF711FC019B82680392CA
:1005700005F10C02ABEB0505994506D8A04581BFF6
:10058000E91811F8081C3955013401339A42F3D1A6
:1005900001361546B4E7204605B0BDE8F08F0000EF
:1005A000F7B5B3F5785F0E46054617461946089C21
:1005B00000F0B08029D843F60233994255D00FD8C5
:1005C00040F20913994200F0C080B1F5E06F00F0ED
:1005D000B0800A460120644901F05EFF002050E02F
:1005E00043F6024399424ED043F602539942F0D16A
:1005F000204600F099FD204600F0CAFD3A46034629
:1006000031462846FFF75FFF3BE044F20263994220
:1006100055D013D8B1F5804F42D044F201339942FE
:10062000D7D1204600F080FD204600F0B1FD3A46CB
:10063000034631462846FFF7C3F922E044F204623C
:10064000914259D04AD3B1F5C84FC2D146F20141C7
:10065000204600F069FD204600F09AFD3A46034628
:1006600031462846FFF730FA0BE0204600F05CFDEB
:10067000204600F08DFD3A46034631462846FFF7F6
:1006800097FB03B0F0BD204600F04EFD204600F081
:100690007FFD3A46034631462846FFF7F5FBF0E773
:1006A00040F20321204600F03FFD204600F070FD9F
:1006B0003A46034631462846FFF7B4F9E1E744F2EB
:1006C0000361204600F030FD204600F061FD3A460F
:1006D000034631462846FFF743FCD2E71146204641
:1006E00000F022FD204600F053FD3A460346314615
:1006F0002846FFF7FDFCC4E71946204600F014FD2C
:10070000204600F045FD3A46034631462846FFF7AD
:10071000B7FDB6E743F60161204600F005FD20462F
:1007200000F036FD3A46034631462846FFF7A8F961
:10073000A7E72046FFF784FA02AB63E902013A46D5
:1007400031462846FFF7F4F99BE740F201112046B5
:1007500000F0EAFC204600F01BFD3A460346314615
:100760002846FFF7FAF98CE72560050001490248A1
:1007700000F03ABBBC7605006C290020014800F06F
:100780002BBB00BF6C29002010B5064B0360002373
:100790000446037181600273036100F04FF9204643
:1007A00010BD00BF14CA050010B5034B036004461A
:1007B00000F06CF9204610BD14CA0500407970475E
:1007C0000223037301207047A0F10800FFF7F8BF70
:1007D000032303737047A0F10800FFF7F9BF7047C8
:1007E0007047C2688368406812F0010F4FEA6202E6
:1007F00018BF8158104418BFCB581847C268836887
:10080000406812F0010F4FEA620218BF815810448D
:1008100018BFCB58184713B502AA40F2111322F89B
:10082000023D0121044600F069FDC8280BBF0120EC
:10083000002001230423237302B010BDA0F108009F
:10084000FFF7E9BF13B502AA40F2111322F8023DE7
:100850000121044600F070FD0023237302B010BD97
:10086000A0F10800FFF7EEBF10B503790446D807E2
:1008700009D5206803689B689847A07118B9237947
:1008800023F0020323712379990704D520680368B4
:100890001B699847A07123795A0705D5206803681A
:1008A0005B6998470123A37123791B0705D520684D
:1008B0000368DB6898470123A371012363712368F0
:1008C0001B7B23B10020BDE8104001F032BC10BDFD
:1008D00010B5044601F090FD204610BD10B5044649
:1008E00001F08AFD204610BD13B50468052104F10E
:1008F000080000F019FC0222E1680DF1060033F057
:10090000BEF8BDF8060002B010BD00002DE9F043AE
:10091000384BC9B01C685368039206460F467BB13A
:1009200013890E2B02D813F0FF0F09D003A8FFF78D
:10093000DBFF002C45D018B10138246980B2F8E7FC
:1009400000230DF120081A4648F833200133202BEC
:10095000FAD100254FF040099CB1202D11D0A0689C
:1009600033F08EFA09308144B9F5EB7F09D8A368DA
:1009700048F8353008EBC50322791A71246901352E
:10098000EAE74FF48A72ADF818209DF81A20ADF806
:10099000105042F0030202F0C3026FF38712002CE2
:1009A00006AB04A98DF81A204FF000028DF81B2029
:1009B0000093CDF8148007910F4B14BF6422C82216
:1009C00011E003A8FFF790FF0C490246012001F057
:1009D00063FD0B4A92E8030008AB83E80300009331
:1009E000054B4FF4D0723946304600F02DFD49B02A
:1009F000BDE8F083742900208029002054CA050036
:100A00007829002010B50468083420460C2100F035
:100A10008BFB2046BDE8104000F091BB38B50D6857
:100A20000446032105F1100000F07EFB01226969F4
:100A3000204633F024F8204638BD000070B5054646
:100A400082680F49012001F027FD2B6923B10122A3
:100A500091210C4804F022FE0B4C26685EB1A96877
:100A6000B06833F0FBF920B901229921054804F060
:100A700015FE3669F2E723682B61256070BD00BF63
:100A80007DCA05008FCA05007429002082680F49BD
:100A900010B50446012001F0FFFC0D4B1A6894428A
:100AA00002D122691A6010BD13693BB1A34202D181
:100AB0001B69136110BD1A461B69F6E70122BC21B0
:100AC0000448BDE8104004F0E9BD00BFA3CA05001A
:100AD000742900208FCA05000A780379032A1DD8DB
:100AE000DFE802F002080F1613F0FB0F0CBF012025
:100AF0000020704703F0FD02012A11D0052B13D10D
:100B00000EE0022B0ED0052B14BF002004207047EE
:100B100003F0FD02012A0DD108207047FF20704725
:100B2000022070470420704713F0FB0F14BF002011
:100B300003207047022B04D0052B14BF00200C208B
:100B400070470C207047000070B58AB00023087B06
:100B500001930D4600918DF8042001F0C8FA044677
:100B6000064618B16846FFF77FFE29E0174B02934F
:100B70000590174B287BCDF80CD002A9049301F007
:100B8000FAFA0546F0B1214601F00DFB114B069330
:100B90002046114BCDF81CD00893099401F0A7FA18
:100BA00018B106A801F0ADFA07E006A8FFF719FE94
:100BB00018B9022001F007FCF7E7284601F0EFFA28
:100BC0009DF8066030460AB070BD00BF48CA0500F7
:100BD0006908020034CA0500BD07020037B50446A3
:100BE0000022114604F1080500F04EFB00221449D2
:100BF0002846FFF7C9FD134B23604C33A360124A0C
:100C000012492023012001F047FC114B1B689D4233
:100C100001D1A36923B101225A210E4804F03EFDFF
:100C200002A9012301F8043D2846FFF755FF294694
:100C300002462046FFF788FF204603B030BD00BFC4
:100C4000B8CA050070CB0500D4CB0500C8CA0500A2
:100C5000742900208FCA0500134B37B50546036081
:100C60004C3345F8083F114B1B689D42044601D1A7
:100C7000836923B1012264210D4804F00FFD02A90C
:100C8000032301F8043D2846FFF726FF29460246C4
:100C90002046FFF759FF2846FFF786FD204600F063
:100CA000CDFA204603B030BD70CB0500742900207A
:100CB0008FCA0500A0F10800FFF7CEBF10B50446AB
:100CC000FFF7CAFF204631F079FD204610BDA0F1A4
:100CD0000800FFF7F3BF000038B5094B1C680D464C
:100CE00034B12946A06833F0B9F830B12469F7E788
:100CF0002A460449012001F0CFFB204638BD00BF41
:100D000074290020D8CA05002DE9F04186B006AC50
:100D1000064644F80C2D20468846FFF773FE014630
:100D20003046FFF7D9FF04AD074650B92046FFF71C
:100D300069FE24490246012001F0AEFB4FF4CA725D
:100D40002EE021462846FFF769FE29463846FFF780
:100D5000C3FEFF28024617D090B339463046FFF74E
:100D6000F3FE68BB21462846FFF758FE20469DF853
:100D70001070FFF747FE3A4603461349012001F081
:100D80008BFB4FF4FA720BE021462846FFF746FE34
:100D90009DF810200D49012001F07EFB4FF4C87230
:100DA0000B4B93E8030042F4803285E80300094BC3
:100DB00000954146304600F047FB06B0BDE8F081A3
:100DC000C822EDE7F3CA050039CB050013CB0500B7
:100DD0007829002080290020704710B5044631F0A2
:100DE000EDFC204610BD0000014A026041607047E2
:100DF000ECCB0500406810B510B94FF4C87010BDB9
:100E00008207FAD102680A4B9A420ED14168B1F1C9
:100E1000807FF2D28B07F0D184680C390C3001F05E
:100E2000E0F98442E9D1C82010BD40F2F91010BDAC
:100E3000574252304FF6FF73994208D04268B2F8D9
:100E400054308B4203D9D3680B44D018704700202C
:100E500070474FF6FF73994270B519D04268CEB211
:100E6000B2F8623009120131994211D2946A1444E5
:100E70004D0034F81130B3420AD92C44516A34F889
:100E8000023C33449BB2062000FB0310104470BDAB
:100E9000002070BD38B505460C4621882846FFF76E
:100EA000D8FF28B10378012B02D183882380F4E78F
:100EB00038BD4368B3F86000884270B515D9986AA8
:100EC00000241844E5B26E1C013430F81660B142BB
:100ED000F8D230F8150001EB0524201A10805A6A68
:100EE000062000FB0121581870BD002070BD4FF690
:100EF000FF7399420AD04368B3F858208A4205D953
:100F00005A69062000FB01215818704700207047DD
:100F10004FF6FF73994209D04268B2F85A308B42BB
:100F200004D9936903EB4103D01870470020704740
:100F30004FF6FF739A4217D04B68B3F85C108A42A1
:100F400005D2D96901EB4202134401220AE0521A88
:100F5000B3F85E1092B2914206D9196A01EBC2024F
:100F600013440022027001E00023037043607047C5
:100F70004FF6FF7399420AD04368B3F864208A425F
:100F800005D9DA6A062000FB0121581870470020B5
:100F900070474FF6FF73994209D04268B2F8663045
:100FA0008B4204D9136B03EB4103D0187047002028
:100FB00070474FF6FF73994209D04268B2F8683023
:100FC0008B4204D9536B03EB8103D0187047002088
:100FD00070474FF6FF73994209D04268B2F86A3001
:100FE0008B4204D9936B03EB4103D0187047002068
:100FF00070474FF6FF7399420AD04368B3F86C20EC
:101000008A4205D9DA6B0C2000FB01215818704781
:10101000002070474FF6FF7399420AD04368B3F837
:101020006E208A4205D91A6C0C2000FB0121581849
:10103000704700207047FF2909D04268B2F870302D
:101040008B4204D9536C03EB4103D0187047002046
:1010500070474268D368B2F85400D118034413446F
:101060000020994206D011F8012B002AF9D1013055
:1010700080B2F6E7704773B50B880380837803F07E
:10108000E00343F0140303F0DF036FF3871383706F
:1010900004468878E0704B6863600B88DBB102AD72
:1010A000002305F8013D8DF806300BF03BFB03688B
:1010B0001B699847036861681E680DF106022B469C
:1010C000B047A3789DF8072062F300039DF806203F
:1010D00062F34103A370204602B070BD38B50D46DF
:1010E000044650B1837843F0030303F0C3036FF366
:1010F000871383700023C37043602B7823800C2BED
:1011000002D1AB6863600AE003F0FD030D2B04D14C
:1011100001224E21034804F0C1FA083565602046DB
:1011200038BD00BFF4CB050070474368187870479E
:10113000436893F900007047436818787047406827
:1011400070474068704700000B880E2B37B5054686
:101150000C460AD9A37803F00C03042B0BD0012210
:1011600096210A4804F09AFA05E0012292210748E4
:1011700004F094FAEEE763680093E2782188002394
:10118000284613F0CFF9284603B030BDF4CB050054
:1011900030B5837803F00C030C2B85B0044604D1E2
:1011A0000122A621194804F079FAA37803F00C0370
:1011B000042B28D1E0780BF0B5FA05460BF09EFD24
:1011C00003AA21882C300DF0A7FDB0B12B6828466A
:1011D0001B699847039A036800925D6821886268DA
:1011E0000023A847606040B1A37803F0F20343F006
:1011F00009036FF30413A37005E00122B321034830
:1012000004F04CFAF0E7606805B030BDF4CB05009F
:10121000064A937843F00303002103F0C30361F30C
:10122000871311809370D170516070477829002026
:101230007047704770470BF061BD000010B5054B5B
:10124000036004460BF05AFD21460BF0FFFD2046DB
:1012500010BD00BF08CC050010B50446FFF7EEFF37
:10126000204631F0ABFA204610BD38B5038823F094
:101270000205C82D044605D0642B03D0CC2B01D029
:101280000DF088FA208838BD0E4B10B5036000239E
:101290000371437903F0F00362F3071343714FF6D0
:1012A000FF730446C3800BF029FD21460BF09EFD21
:1012B000C82804D001222921034804F0EFF9204670
:1012C00010BD00BF08CC05003CCC050000487047AD
:1012D0006D2006004379C28800201B096FF30300CC
:1012E00063F307106FF30F2062F31F407047C0884D
:1012F0007047C18070474079000970470368F7B5AF
:101300009B680E4617460446984705462046FFF759
:10131000E1FF3A460346314628460CF0B3FA02ABE9
:101320005B2223F8020D03491846FFF79EFF03B026
:10133000F0BD00BF3CCC0500F0B5036885B09B68EC
:101340000E4617460446984705462046FFF7C2FF5B
:10135000012300933A460346314628460CF004FA2E
:1013600004AB602223F8020D02491846FFF77DFF07
:1013700005B0F0BD3CCC0500036873B59B680E4614
:101380000446984705462046FFF7A4FF324601462B
:1013900028460CF07BFF02AB652223F8020D0349BF
:1013A0001846FFF762FF02B070BD00BF3CCC0500DD
:1013B0000368F7B59B680E461746044698470546EE
:1013C0002046FFF787FF3B463246014628460CF091
:1013D00081FF02AB6A2223F8020D03491846FFF78A
:1013E00044FF03B0F0BD00BF3CCC050073B50368FB
:1013F00004469B6816460D469847E288637900923A
:101400001B0932462946006A0DF04AFA02B070BD47
:10141000036870B59B6804460D4616469847E388F6
:10142000006A32462946BDE870400DF075BA38B5FD
:1014300003689B680D46044698472A46E188006A7F
:10144000BDE838400DF0C6BAF0B585B014461F4669
:1014500005460E46FFF73EFFE303039008D503A8B9
:1014600000F034FE037843F00103037024F4803469
:101470002B6828469B6898470A9B01933246A3B283
:10148000039900970CF0C8FF04AB882223F8060DDF
:1014900002491846FFF7E9FE05B0F0BD3CCC050057
:1014A00007B5054B009340F2F512044BFFF7CCFF54
:1014B00003B05DF804FB00BF7829002080290020DC
:1014C00007B5044B0093C822034BFFF7BDFF03B0E1
:1014D0005DF804FB7829002080290020F0B585B054
:1014E0001F4605460C461646FFF7F4FECB03039055
:1014F00006D503A800F0EAFD037843F0010303706A
:101500002B6828469B6898470A9B0193A2B23346F2
:10151000039900970CF0EEFF04AB942223F8060D1C
:1015200002491846FFF7A1FE05B0F0BD3CCC05000E
:1015300070B4566802F108030024B4420ED01D882E
:101540000E2D01D80D2D02D001340833F5E7072CFC
:1015500004D8026854691A46234601E003681B69EF
:1015600070BC1847014B00221A7070478029002078
:1015700070477047704770477047704770477047B3
:101580007047C2688368406812F0010F4FEA620238
:1015900018BF8158104418BFCB5818470BF0AEBB8A
:1015A00010B5054B036004460BF0A8FB21460BF079
:1015B000C9FC204610BD00BF94CC050010B5044600
:1015C000FFF7EEFF204631F0F9F8204610BD10B5C8
:1015D000044631F0F3F8204610BD10B5044631F052
:1015E000EDF8204610BD000030B5816987B0044693
:1015F00021B92049012000F04FFF39E004ADCB892B
:1016000002690393103128460292FFF767FD217BA0
:10161000029A039B052924D8DFE801F003080F1480
:10162000191E206800952189456903E0206800950E
:10163000218985692046A84718E0206800952189FE
:10164000C56AF7E7206800952189056BF2E72068F5
:1016500000952189C569EDE7206800952189056A13
:10166000E8E70122FD21044804F018F80023A361F3
:1016700007B030BD925B0500D0CC050010B5044624
:1016800000F0BAFE204610BD10B5044B03600446BE
:10169000406900F084FD204610BD00BF80CC0500ED
:1016A000038813B15A1C92B201E002220123028086
:1016B00001B10B801846704710B50446FFF7E4FFF0
:1016C00014B1204600F098FE204610BD10B5044627
:1016D0000430FFF756FF14B12046FFF7EDFF10BDB1
:1016E000092110B501731249124B096803600161A9
:1016F00000234FF6FF71044643600381C381838258
:1017000083618183C38380F8202080F8213080F8B2
:1017100022100BF0F3FA21460BF0E0FBC82804D0AE
:1017200001225221044803F0B9FF204610BD00BF3A
:1017300038CD050094CC0500D0CC0500004870479A
:101740006D200600838B90F8202000206FF30300AB
:1017500062F307106FF30F2063F31F407047808B15
:1017600070478183704790F820007047F7B5089E56
:1017700000249E463460002933D01C4C2468019418
:101780008C89002C2FD00C78092C05D09EF8007085
:101790003C1B6742674100E001270D891DB1148899
:1017A0000134A54207DC4D893DB11488AC42ACBF81
:1017B0000025012502E0002500E001254C68019B81
:1017C000A34203D0031B5C425C4100E0012437B11B
:1017D0002DB124B1138831600133138001E0283129
:1017E000CEE7084600E0204603B0F0BD38CD050046
:1017F0002DE9FF41984603689B6804460E4617464C
:10180000984798F80030054623B12046FFF79AFF25
:10181000034601E00A4B1B680122009231463A461A
:1018200028460BF0C9FB04AB40F2071223F8020D67
:1018300004491846FFF719FD04B0BDE8F08100BF68
:1018400040CD0500D0CC05002DE9F04385B004AEB5
:10185000062306F8023D00F118030093044688466B
:101860001746416800F108021E4833460068FFF73A
:101870007DFF0546A0B13B680BB122891A802B7C05
:101880002BB1012240F21B11174803F007FF236818
:101890006A68DE682189EB892046B047A8891DE087
:1018A000236820469B68984705462046FFF74AFF75
:1018B0003968814604F11E00FFF7F2FE7B68009351
:1018C0004A460346414628460BF00EFF40F22512D9
:1018D000ADF80E0004493046FFF7C7FC05B0BDE87F
:1018E000F08300BF38CD0500D0CC05002DE9F04FC6
:1018F0009B4690F82230FF2B97B004468A46154647
:1019000074D103689B689847866A06F11009002124
:10191000484612F010FCC0B2FF2884F8220062D0C2
:10192000D5F8048005EBC80318460D210193FFF795
:10193000FBFB019B1846FFF704FC08F1FF37034649
:1019400038B9019001224FF4C971314803F0A6FE65
:10195000019B3049079716AA002742F8401D01371E
:10196000B84507D0F90002EB010E294403C98EE8FF
:101970000300F4E7B16994F822508988D6F82080F2
:1019800001924D4308EB0507BAF80210798028F858
:101990000510DBF804107960BB60DBF804300493B9
:1019A0009DF8143043F00303002603F0F30366F3BD
:1019B00007138DF81430236803969B6820469847D8
:1019C00003AB019A51460CF01DFCADF80A0020F063
:1019D0000200C8280DD14FF4D6720D490DF10A004E
:1019E000FFF743FC11E040F2FB100EE040F2A710BD
:1019F0000BE07E8028F80560484694F8221012F02B
:101A0000FDFAFF2384F82230E5E717B0BDE8F08F38
:101A1000D0CC05005CCC05002DE9F0478CB08846A1
:101A20001D468DF80F200446149EFFF78BFE0CAB6D
:101A300043F8200D184600F048FB9DF80F301F06B4
:101A400007D503F07F038DF80F30037843F00203CE
:101A500003702A7A91075EBF037843F00103037095
:101A6000530706D5037843F004030370012384F879
:101A7000213029689DF80FA004F11E00FFF710FE29
:101A8000814605A8049F00F0D1F901238DF8143098
:101A90009DF8153007976AF3030303F08F036FF384
:101AA000C7138DF8153004F11803009304F10802F0
:101AB0000DF10F036168ADF816904046CDF818801F
:101AC000FFF754FE9DF80F300746002843D02A68E0
:101AD0000AB121891180FA8921898DF82030CDF849
:101AE0002480ADF82210ADF828200B970CAB13E939
:101AF0000F0004F10C0585E80F00182094F8206011
:101B000000F078FC294B0360294B4360294BC360EC
:101B100000230546846003610146304600F02BFB3C
:101B2000686128B901224FF48A71234803F0B6FD99
:101B300068690021017200F036FB9DF81430012B1A
:101B400004D0012270211C4803F0A8FD02238DF867
:101B50001430BC8923E0012B0ED1736863B136F8D1
:101B600033300E2B08D80D2B06D12B46324605A953
:101B70002046FFF7BBFE11E0236820469B6898478C
:101B80002B46324605A90CF03DFB0CAB4FF4BD7261
:101B900023F8100D08491846FFF767FB044605A80F
:101BA00000F048F920460CB0BDE8F08780CC050075
:101BB0006CCC0500E9150200D0CC050073B50368B4
:101BC00004469B6816460D469847A28B009294F8EF
:101BD0002030006A324629460CF062FE02B070BD29
:101BE00038B503689B680D46044698472A46A18B82
:101BF000006ABDE838400CF0EDBE00002DE9F04F62
:101C00009A4690F82230FF2B8FB004468B469146BF
:101C10007ED003689B689847D0F8288094F82250BB
:101C2000D8F81830D8F820709B885D437E197B5B0C
:101C3000002B6DD073885B456AD1BAF1640F59D11E
:101C40003B4B0A930D23B268ADF830309DF832302B
:101C50000D9243F003034FF0000A03F0C3036FF348
:101C6000871351464FF0010B04F11E008DF83230FE
:101C70008DF833A0CDF82CB0FFF712FD70800390E3
:101C80002046FFF75FFD029004A800F0CFF89DF812
:101C90001130029906916BF3030303F08F036AF38B
:101CA000C713CDF814908DF81130736808939DF820
:101CB0002430039AADF8122043F0030303F0F3033A
:101CC0006AF307138DF824302368CDF81CA09B68B5
:101CD0008DF810B02046984707AB0AAA04A90CF06B
:101CE00091FA20F002039BB2C82B82461AD004A8B6
:101CF00000F0A0F8002337F805B073807B5308F19B
:101D0000100094F8221012F079F9FF2384F82230A1
:101D10002368189A00929D694A46534659462046C0
:101D2000A84702E004A800F085F80FB0BDE8F08FE6
:101D3000345A05002DE9FF41044604A81E468B686D
:101D400040F8043D15460F46D1F8048000F0BDF977
:101D500003785A0707D4236879880096DF694246DA
:101D60002B462046B84733880E2B00D833B1236862
:101D700032465F6A074B41462046B84794F8213007
:101D80002BB9A5F1C8035D425D4184F8215004B030
:101D9000BDE8F081C42900201E491F4B01221A70A2
:101DA0000A7A02F0FE0242F00202002302F0F3027D
:101DB00063F307120A720B604B6018490A7A0B60D2
:101DC00042F0030202F0F30263F307120A72144AAC
:101DD0004B60117A136001F0F00163F30711117287
:101DE000104953600A7A0B6002F0FE0242F00602CC
:101DF00002F0F70263F307120A724B600A490A7A8B
:101E00000B6002F0F00242F00A0263F307124B602B
:101E10000A72704784290020B42900209C290020E0
:101E200090290020A8290020B82900200022027053
:101E30007047000010B50278012A044603D11F2123
:101E4000024803F02BFC204610BD00BF18CD050052
:101E500038B50B78012B04460D4604D001222C2105
:101E60001A4803F01BFC2278012A03D12F211748BE
:101E700003F014FC2B7823706A78637862F3030311
:101E800063706B886380AB68A3606B6863606B781A
:101E90006278C3F3001363F3041262706B78D2B2FA
:101EA000C3F3401363F3451262706B78D2B2C3F38D
:101EB000801363F3861262706B78D2B2DB0963F32E
:101EC000C712002362702B70204638BD18CD050064
:101ED000024B034A1A6000225A607047C42900204E
:101EE0002CCD050038B50A460C460021054631F0D8
:101EF00067FD08B1401B38BD204638BD08460C229E
:101F0000002131F0E0BD10B501460446FFF7F6FFB1
:101F1000204610BDF8B508460E46154631F0B0FF14
:101F2000033507463446A31B9F423ED90421204671
:101F3000FFF7D8FF431E032B28D8DFE803F01E105D
:101F40000702E3782F3B9B00DBB200E00023A1787F
:101F50002F3943EA21130901DBB2C9B201E00023A2
:101F6000194694F801E0AEF12F0E41EAAE014FEAB6
:101F70008E1EC9B25FFA8EFE02E0002319469E460D
:101F800022782F3A42EA0E02D2B202E0002319462A
:101F90001A46032805F8032C05F8021C05F8013C35
:101FA00004F1040405F10305BDD8F8BDF0B5151D15
:101FB00001F10C0691F801E00F7888784FEA8E0461
:101FC00004F03C04030144EA971417F03F0703F0C0
:101FD000300318BF2F3743EA1E13800805F8047C2E
:101FE00004B12F3405F8034C0BB12F33DBB205F8E5
:101FF000023C08B12F30C0B203318E4205F8010C0B
:1020000005F10405D6D100231374F0BD0A4601463C
:10201000FFF7CCBF70B50C4609B9002070BD08466B
:1020200031F02EFF431E0F2BF7D8251814F8016B43
:10203000304631F080FB20B9304631F085FB002876
:10204000EBD0A542F2D1012070BD10B5037886B067
:10205000044643B1014601AAFFF7A8FF01A92046A3
:10206000FFF7D8FF00E0184606B010BD38B50446AB
:102070000D46FFF7EAFF38B10C222946204631F021
:10208000EFFCB0FA80F0400938BD38B504460D4683
:102090000146FFF733FF29462046FFF7BBFF30B16B
:1020A000224629462046BDE83840FFF733BF38BDF9
:1020B00010B50446FFF7E9FF204610BD10B50446F1
:1020C000FFF7E3FF204610BD7047704770470B468F
:1020D00010B5014618460AF0E8FF044630B100F09A
:1020E00036F96469231A5842584110BD10BD10B525
:1020F00004460AF003FE01462046BDE81040FFF703
:10210000E6BF38B505460AF0F9FD0BF05DFC0F2877
:10211000044601D1002038BD0AF0F0FD21460AF046
:10212000C4FF0028F6D029460C300FF00BF901202F
:1021300038BD10B504460AF0E1FD21460AF0B5FFAE
:1021400040B1036980699B7801219940BDE8104046
:1021500000F08DB810BD38B505460C460AF0CEFD2E
:1021600029460AF0A2FF28B121460C30BDE83840CC
:102170000FF0E0B938BD38B505460C460AF0BEFD93
:1021800029460AF095FF21460C30BDE838400EF094
:1021900085BE03689868431A584258417047014603
:1021A00000680EF0B1BE0A46014600680EF09CBE03
:1021B00030B5082380221142044614BF01250025B2
:1021C00045EA4000002CBFBF80F0986080F48E305C
:1021D00080F4DB7080F00100013B4FEA6202EAD13B
:1021E00030BD38B5044645180020A54204D014F887
:1021F000011BFFF7DDFFF8E738BD000030B50C4DDF
:102200000A44914212D011F8013B83EA000404F021
:102210000F0455F8244084EA101080EA131303F0E9
:102220000F0355F8233083EA1010EAE730BD00BFF2
:1022300044CD050010B5002304460322194602F0E0
:1022400039F9204610BD704707B502AA002089025F
:102250004FF47A7342F8040DB1FBF3F34FF0FF3102
:1022600002F0CEF800B1019803B05DF804FB002342
:10227000012202F01FB900001FB504AA002342F892
:10228000043D0092012202F079F90849039A0B6893
:1022900013430B603AB1064B4FF080521A60BFF304
:1022A0004F8FBFF36F8F05B05DF804FBCC29002082
:1022B00004ED00E02DE9F041064686B00C200F4603
:1022C0001546984600F096F80C9B0F4983606A1CEF
:1022D00005AB002580E84001AE4218BF31468DE8CD
:1022E0000C0004460346039502953A46074801F060
:1022F000E9FA012803D0204600F07EF805950598FC
:1023000006B0BDE8F08100BF6D2006006523020025
:1023100038B5044600F06AF80021204601F0CAFFF3
:10232000C5B2012D04D102220021204601F0B6FFE2
:1023300000F05EF8012D09D1012001F083FD00219C
:10234000204601F0B7FFC0B20228F4E738BD08B557
:1023500001F0C4FF012803D0BDE8084001F0B8BF78
:10236000002008BD38B54468856800F045F80021B4
:102370000846012201F092FF2846A04700F036F8F7
:1023800000210322084601F089FF00F031F8FFF731
:10239000DEFFBDE8384001F087BB10B5FFF7D7FF7F
:1023A00001220446002101F079FF204610BD01F012
:1023B00017BC002108B5084601F07CFFC0B2831E9F
:1023C0005842584108BD80024FF47A73B0FBF3F0D5
:1023D00001F038BD044B4FF080521A60BFF34F8FAD
:1023E000BFF36F8F704700BF04ED00E002F0BABD8D
:1023F00002F0D2BD03F016B903F016B910B5054CC2
:10240000236813B900F03AFA2060206800F080FADF
:10241000012010BDBCE5002010B500208EB000F0FA
:10242000F6F905A9019001A800F08AFF07990A2290
:1024300091FBF2F303F130008DF8080002FB131357
:1024400006983A2130338DF809308DF80A1090FB48
:10245000F2F38DF80D1003F1300405998DF80B405F
:1024600002FB130330338DF80C3091FBF2F303F1D0
:10247000300002FB131330338DF80F3020238DF81A
:102480000E008DF8103002A800238DF8113000F0F6
:10249000CBF90EB010BD00000EB477B50646FFF7BD
:1024A000ADFF70B3194D079A08AB4FF48071284601
:1024B000019332F04BF8002819DBFF284FF000049D
:1024C0001248C4BF85F8FF40114C03F0A1F880B159
:1024D000FFF7A2FF0D4800F0A7F916B10D4800F074
:1024E000A3F90D4B2BB1094821F0A6FF01E00B4CDD
:1024F00000E014B1204600F097F9094B186800F08D
:1025000043FA03B0BDE8704003B07047D029002003
:1025100084CD05006B20060039440400AACD0500D7
:10252000BCE50020D0B5EFF305833BB9EFF3108491
:1025300072B6E4B2B4FA84F4640900E0002400F056
:1025400081FE0C4B1A6890420B4A07D2D2E9006711
:1025500016F1807647F10007C2E90067186004B100
:1025600062B6D2E90023161843F100073046394617
:10257000D0BD00BFD82A0020E82A002037B5FFF7D9
:10258000D1FF4FF47A73A0FB034503FB0155164BB3
:10259000D3E90001A20A42EA855280184FEA952346
:1025A0005941124A4FF4B0738B4208BF824218D28D
:1025B0000F4BD3E9004514F5FA7445F100058D423F
:1025C00008BF84420DD2C3E90001CDE90001002219
:1025D00014461DF804500134082C82EA0502F8D193
:1025E0001A7203B030BD00BFD02A0020009004AFA3
:1025F00080FF00202DE9F041DFF83C80D8E900673A
:10260000FFF790FF4FF47A73A0FB034503FB0155DE
:10261000A20A42EA8552B21A4FEA9523054967EBAE
:102620000303C1E9002300220023C8E90023BDE819
:10263000F08100BFD02A0020E02A00200C4BD3E913
:102640000023134310B501D0FFF7D4FFFFF796FF27
:1026500000234FF47A7230F0E7FD064B1B68014609
:1026600023B1054ABDE810401068184710BD00BFEF
:10267000E02A0020F82A0020F42A0020024B1860EB
:10268000024B1960704700BFF82A0020F42A00208E
:1026900030B5394B394C002587B01D60384B0021CF
:1026A0000020C3E9000100F033FD01223549364B1B
:1026B00000954FF47A7000F0BFF8344B186000F0CA
:1026C000CAF84FF47A720023D4E9000130F0ACFD6F
:1026D00002460B4601202E49FFF7DEFED4E9002317
:1026E000CDE902232A462B4602A9595C0133082B67
:1026F00082EA0102F8D1237A26490120FFF7CCFEB5
:10270000D4E9002352EA03011ED0CDE904230023BB
:102710001A4604A9515C0132082A83EA0103F8D160
:10272000227A9A4210D11C490120FFF7B5FE134BC3
:10273000D3E9000140F6340212184FF000034B4178
:102740001649C1E900230FE015490120FFF7A4FE57
:1027500000230022C4E9002305A1D1E900017B2365
:1027600023720E4BC3E9000107B030BDAFF3008008
:1027700000B0CAA24A010000D82A002080FF002031
:10278000E82A0020D1CD05003D260200F02A0020D5
:10279000D6CD0500F2CD050006CE0500D02A0020DA
:1027A0001FCE050038B5054638B9FFF7E7FE4FF4F0
:1027B0007A72002330F038FD38BDFFF7DFFE4FF4AA
:1027C0007A720023044630F02FFDC0EB401300EB7B
:1027D0008303A4EBC3042C8038BD0000044BC3E981
:1027E0000001D3E90023134301D0FFF703BF704773
:1027F000E02A002010B5FFF795FE4FF47A74A0FB95
:10280000042304FB0133900A40EA835010BD10B545
:102810000446FFF7B3FE4FF47A72002330F004FD54
:1028200004B1206010BD000002460249042000F0FF
:1028300051BA00BF2417060010B40C460199019349
:1028400080020B464FF47A71B0FBF1F120465DF83F
:10285000044B00F009BE13B5044601F0BBF94FF07C
:10286000FF330093024600230121204600F020FEA2
:10287000431E5842584102B010BD000010B501205F
:1028800002F0A4F8044620B901221721024802F000
:1028900005FF204610BD00BF4DCE050010B5042039
:1028A00002F094F8044620B901222721024802F0E0
:1028B000F5FE204610BD00BF4DCE050010B5044604
:1028C00020B901223121044802F0E8FE2046BDE88B
:1028D000104002F04BBA00BF4DCE050038B50C4693
:1028E000054620B901224B21084802F0D7FE0023FB
:1028F0001946A40228464FF47A72B4FBF2F202F0B1
:1029000037F9431E5842584138BD00BF4DCE05002F
:1029100010B5044620B901224321054802F0BEFE4D
:1029200042F210712046FFF7D9FF0028F8D010BD01
:102930004DCE050038B50C46054620B90122592177
:10294000074802F0ABFEA40228464FF47A71B4FBAC
:10295000F1F102F0C3F9431E5842584138BD00BF9F
:102960004DCE050010B5044620B90122512105487D
:1029700002F094FE42F210712046FFF7DBFF0028C0
:10298000F8D010BD4DCE050010B5044620B9012287
:102990005F21064802F082FE00231A4619462046AF
:1029A00001F066FF431E5842584110BD4DCE050050
:1029B00010B5044620B901226521054802F06EFEDB
:1029C000204602F025F8431E5842584110BD00BF72
:1029D0004DCE05000649074A074B9B1A03DD043B11
:1029E000C858D050FBDC00F04DF8FCF729FC000083
:1029F000287206000826002040290020FEE7FEE796
:102A0000FEE7FEE7FEE7FEE7FEE7FEE7FEE7FEE79E
:102A1000094B1B78062B0CD1084B1B681A0708D1F1
:102A2000074B186800F0F000A0F1300358425841FD
:102A300070470020704700BFE00F00F0E40F00F087
:102A4000E80F00F00C4B1B78062B10D10B4B1B68CA
:102A50001A070CD10A4B186800F0F003302B08D08D
:102A600000F0E000A0F140035842584170470020B8
:102A700070470120704700BFE00F00F0E40F00F046
:102A8000E80F00F008B5FFF7DDFF28B16C4B6D4A89
:102A90001B68C3F304231360FFF7BAFF10B16A4B3E
:102AA0006A4A1A60FFF7CEFF28B1694B694A1B6872
:102AB000C3F342331360FFF7ABFF20B1664AD3681C
:102AC00023F08073D360FFF7BDFF40B14FF0804328
:102AD0000022C3F80C21C3F81021C3F83825FFF7F2
:102AE00097FF10B15D4B03221A60FFF791FF40B1D1
:102AF0005B4B05221A6001229A6700229A603F22EE
:102B00005A60584B1B78062B09D1574B1B681A0784
:102B100005D1564B1B6803F0F003502B47D0FFF74D
:102B200091FF28B1524B534A1B6803F04F031360C7
:102B3000514AD2F8883043F47003C2F88830BFF3AA
:102B40004F8FBFF36F8F4FF01023D3F80C32DB079A
:102B500029D54A4B0122C3F80425D3F80024002AC2
:102B6000FBD04FF010224549D2F80C3223F001037C
:102B7000C2F80C32D1F80024404B002AFAD00022CF
:102B8000C3F80425D3F80024002AFBD0BFF34F8FED
:102B900039493B4BCA6802F4E0621343CB60BFF390
:102BA0004F8F00BFFDE7374B374A1A6008BD4FF023
:102BB0008052364BD2F80414C3F82015D2F808140A
:102BC000C3F82415D2F80C14C3F82815D2F8101441
:102BD000C3F82C15D2F81414C3F83015D2F8181411
:102BE000C3F83415D2F81C14C3F84015D2F82014D9
:102BF000C3F84415D2F82414C3F84815D2F82814A1
:102C0000C3F84C15D2F82C14C3F85015D2F8301470
:102C1000C3F85415D2F83414C3F86015D2F8381438
:102C2000C3F86415D2F83C14C3F86815D2F8401400
:102C3000C3F86C15D2F84424C3F870256FE700BFC1
:102C4000240300104035014074C007400DF0ADBAB8
:102C5000440200103C050040F0ED00E0A0050040FB
:102C600010560040E00F00F0E40F00F0E80F00F015
:102C700058020010E40E004000ED00E000E00140CA
:102C80000400FA05102600200090D00300C0004088
:102C900013B50093034B5C6913460A460021A04715
:102CA00002B010BDFC2A002038B5012016F0E0F972
:102CB000044638B916F0F2F9054616F0F3F9024B5E
:102CC0005D619861204638BDFC2A002000231A4629
:102CD000FFF7DEBF13B502AC012344F8042D2246F2
:102CE000FFF7D6FF02B010BD07B58DE80C00022338
:102CF0006A46FFF7CDFF03B05DF804FB1FB50293F2
:102D0000069B0192039301AA0323FFF7C1FF05B0BD
:102D10005DF804FB2DE9FF471C460B4F002380465E
:102D2000894616469A46CDF80CA0CDF808A0019425
:102D300000964A4600214046BD69A84784420346A2
:102D4000F1D804B0BDE8F087FC2A0020094A537886
:102D500091780133DBB2994208BF00231178994280
:102D60001FBF03705378182000FB032014BF0430EA
:102D700000207047202B002073B5054602A80024D0
:102D800000F8014D0E4600F071FA0DF10600FFF754
:102D9000DDFF30B106700A4B9DF8062045605A7081
:102DA00000E004249DF8070000F090FA24B9054BD8
:102DB0004FF48012C3F80021204602B070BD00BF5E
:102DC000202B002000E100E0204B21491A682F232E
:102DD00000BF00BF00BF00BF00BF00BF00BF00BFFB
:102DE0008A422FD000BF00BF00BF00BF00BF00BF9E
:102DF00000BF00BF00BF00BF00BF00BF00BF00BFDB
:102E000000BF00BF00BF00BF00BF00BF00BF00BFCA
:102E100000BF00BF00BF00BF00BF00BF00BF00BFBA
:102E200000BF00BF00BF00BF00BF00BF00BF00BFAA
:102E300000BF00BF00BF00BF00BF00BF00BF00BF9A
:102E400000BF00BF013BC3D1704700BF1026002068
:102E50000024F4000C4B0D484FF4003210B5C3F8B9
:102E6000802001244FF48033C0F84833C0F8083381
:102E70004460FFF7A9FF064B846000201860FFF74D
:102E8000A3FF044B187010BD00E100E000100140EA
:102E9000182B00202F2C00202DE9F74F9248934A41
:102EA00003781278924C9A421FD0924A0133DBB2D7
:102EB0001168022B08BF002321F07F4103701160CD
:102EC0002368002215465BB1186848B9DA68D869EA
:102ED0001AB1DD6159609A601D4603460122F2E78E
:102EE00002B123604FF0010901E00025A946824F9D
:102EF000236800934FF0000ABB4655B12846ED69A0
:102F00002DE0D4F8008046464146002E65D10023CE
:102F100003743B78797899426DD0591CB878C9B25E
:102F2000884239704FF0180101FB03B108BF3D70B2
:102F30000B798868022BE4D0032B4AD0012BE8D10F
:102F4000067C002EE5D1CB6843600B6983604B693A
:102F5000C3608B698361694B1B7803B14660654927
:102F600043680968664A5E1A26F07F469642826880
:102F700001D8164405E0C91A21F07F43934202D2DA
:102F8000D61A066001E000230360002343608360DB
:102F9000C3612368564A0121017433B101681E6878
:102FA000B14204D8711A1960C3611060A5E79E464A
:102FB0001E68B14205D9891BDE699E462EB1334693
:102FC000F6E7761A1E601E4673460160C661D86138
:102FD00093E700212368084604E0B04263D03146FD
:102FE000F66992E71BB118740121DB69FAE7002941
:102FF0008FD023608DE7BAF1000F06D12368009AC5
:103000009A4202D1B9F1000F47D02368002B42D079
:10301000D3F800903B4C374BD4F8046518683A4F0E
:10302000351A3B7825F07F4503359BB94FF4803244
:10303000C4F84423C4F80423344A4FF400314FF059
:103040000108C2F880111160C4F80080FFF7BCFECF
:1030500087F80080A9452CBF00EB0903431923F032
:103060007F40C4F84005D4F80435264A9B1B23F062
:103070007F43801B033320F07F4083420DD9D2F879
:103080000435C2F84035FFF79FFE204B4FF4003265
:10309000C3F8002101E0FFF7DDFE184B00221A7093
:1030A00003B0BDE8F08F884210D1D8F81C302360FF
:1030B00063B90191DFF83CC0124901228A60CCF863
:1030C00000300E4B1A70FFF77FFE01993368F669E6
:1030D000CE6116B13268134433602368984518BF37
:1030E0004FF0010A13E700BF2D2C00202C2C0020EC
:1030F0001C2B0020182B0020202B00202E2C002021
:10310000FEFF7F00001001402F2C002000E100E0B6
:1031100008B5FFF79FFE114B00200B2218709A7024
:1031200058700F4B18600F4B18700F4B18700F4BE7
:103130004FF48012E021C3F8802183F814131A6041
:1031400002F18042A2F56F22C2F8080583F811133C
:10315000074BD2F804251A6008BD00BF202B0020C1
:103160001C2B00202D2C00202C2C002000E100E046
:10317000182B0020074B9B784BB132B128B1036864
:10318000187C20B959745A6170470720704708208D
:10319000704700BF202B00202DE9F7431E4FBB785E
:1031A00005460E4690469BB390B304292ED9436939
:1031B00073B3437C02A80024012B00F8014D0CBF1F
:1031C0008946A14600F052F80DF10600FFF7BEFD5A
:1031D00078B101230370114B4560D3F80435836047
:1031E0009DF80630C660C0F81090C0F814807B705F
:1031F00000E004249DF8070000F068F824B9084BAB
:103200004FF48012C3F80021204602E0072000E0BE
:10321000082003B0BDE8F083202B002000100140FF
:1032200000E100E0064A92783AB130B1426922B139
:10323000002202740221FFF79FBD0820704700BFE3
:10324000202B0020014BD3F80405704700100140EB
:10325000EFF30583C3F3080333B9EFF3148000F0F1
:10326000010080F0010070470120704770B50446EE
:10327000FFF7EEFF012803D01049432017F0E6FACC
:10328000EFF3108572B60E4A9068012390B99360EF
:103290000C4B0D49D3F88060314011600A49C3F8E6
:1032A0008010D3F8841051604FF0FF32C3F88420AF
:1032B000207000E0237005B962B670BD5DCE0500D8
:1032C000302C002000E100E0FC06FFBD10B50446F4
:1032D000FFF7BEFF012803D00949512017F0B6FAC5
:1032E000084B9A685AB154B9EFF3108272B6064986
:1032F00018680860586848609C6002B962B610BDE2
:103300005DCE0500302C002000E100E0094B1EF0EE
:10331000040F1CBFEFF309801847EFF3088006493C
:10332000064A884201D8904202D88D464FF00000EC
:10333000184700BF7961030080FF002080FB002058
:1033400038B50D46044620B901221B21074802F07A
:10335000A5F925B901221C21044802F09FF929464C
:103360002046BDE8384030F009BA00BF71CE0500F4
:10337000F8B5134C01F0F6FD2568E5B9114F124E72
:10338000384601F024FD304601F021FD0F4B1F604F
:103390000F4B2A4610210A201E6001F01DFA206002
:1033A00020B940F21A310B4815F02FF9206810B1FE
:1033B000094901F0B5FCBDE8F84001F0EDBD00BFE2
:1033C0006C2C0020402C0020542C00203C2C002091
:1033D000702C00207ACE0500BECE0500914208B5C3
:1033E0004160006106D8D21A83699A420DD2011D4C
:1033F000074B05E09A4201D2994206D2054B011DC6
:10340000186801F0FEFC002008BD012008BD00BFC7
:10341000702C00203C2C00201FB5FFF7A9FF0D4B9E
:103420001B6833B90C484FF4877115F0EEF8002093
:103430000DE00A4A019200230422009203930293B2
:103440005A220749074800F03DFA0028EAD005B0A3
:103450005DF804FB6C2C00207ACE0500742C002053
:10346000C3CE0500893502002DE9F041804617469C
:103470001E460D4689B1282001F0E4FE044690B1B5
:10348000FFF776FF069BC4F80080A561E76126621E
:103490006362201D01F0A6FC05E04FF49B71034818
:1034A00015F0B3F82C462046BDE8F0817ACE050031
:1034B0002DE9FF410D4690461F46064620B940F2D1
:1034C0004111104815F0A1F80F4C2068B0B1052D3E
:1034D0008DE8200102960CDC00F000FF002302289A
:1034E00008BF0A9A206818BF1A46694601F0C0F959
:1034F00004E000233A46694601F0A8FA04B0BDE8AA
:10350000F08100BF7ACE05006C2C00202DE9F3413C
:103510001A4E374633681A683AB3DB68DC681D68B0
:1035200004F10408404601F084FC636A2046984791
:10353000E369012BEED1A3692B449D4206D263605F
:1035400024614146386801F05CFCE3E70023009306
:103550002A4619462046FFF7ABFF0028DAD14FF480
:103560003F71074815F051F8D4E7064A034910683F
:103570000860136002B0BDE8F08100BF3C2C002061
:103580007ACE0500702C00202DE9F04786B0DFF8D8
:10359000A4A1DAF800301D681DB1DB68D3F8008003
:1035A00000E0A8465E4E00F00DFB00F013FB336810
:1035B00098428146374603D2FFF7A8FF012400E076
:1035C0000024C6F80090574E002C42D13DB3C145AF
:1035D0002CD300F0C3FBDAF80030DB68DD68281D6F
:1035E00001F027FCEB69012B15D1A96943464A4636
:1035F00041442846FFF7F2FE01280CD100942346EF
:10360000424621462846FFF753FF20B940F2931166
:10361000454814F0FAFF6B6A2846984726E0434B6A
:103620001B681A68B2FA82F2520900E02246C9EB1E
:103630000801306801F0ACFB00F090FBB0B93C4BE6
:103640004FF080525A6040BFBFF34F8FBFF36F8F70
:103650000CE000F083FB09E0029B002B03DA0599E4
:103660000498039B9847029B002B08DA00231A4614
:1036700002A9306801F07CFA0028EDD187E7049CAC
:10368000636913B1201D01F0D4FB00F0A3FA3B687D
:103690009842054601D2FFF739FF029A3D60092A98
:1036A000E4D80123934013F4047829D113F0C70F11
:1036B00005D19B06DAD5204601F05AFED6E7A1696E
:1036C000039B2A4619442046FFF788FE0128CDD1E6
:1036D000636A20469847E369012BC7D1A269039921
:1036E000CDF800800A44434641462046FFF7E0FEFD
:1036F0000028BBD14FF428710B4814F086FFB5E7C2
:10370000039BA36123B940F2B721074814F07DFF62
:10371000A1692B462A4629442046FFF75FFEA5E70C
:10372000682C00206C2C00207ACE0500702C002024
:1037300000ED00E03C2C0020054B1A6810B51C463B
:1037400022B940F26D11034814F05FFF206810BDEC
:10375000742C00207ACE050010B5044620B94FF431
:103760005371054814F051FF01F0FCFB246A01F08D
:1037700013FC204610BD00BF7ACE0500074B1B6826
:10378000D86A48B9064B1B68012B06D8054A064B78
:103790001B681068181A704700207047182D002009
:1037A000B02C0020242D00201C2D0020064A136878
:1037B0001968064B11B94FF0FF3203E01268D26866
:1037C000D26852681A6070478C2C00201C2D002093
:1037D0000E4B1A6810B550600D4A126890420446AC
:1037E00007D20C4A10681968BDE81040043101F096
:1037F00008BB094A10681968043101F002FB074B45
:103800001A68944238BF1C6010BD00BF182D0020FC
:10381000242D0020282D00208C2C00201C2D002081
:103820002DE9F0470C68002C49D04B685C684C606F
:1038300001F10807BC4204BF7B684B604B68D3F8BA
:103840000CE000F11C0300204FF0020C05464C6810
:1038500064684C60A74204BFCC684C604C68E46864
:1038600043F81C4C04F1340643F8186C266C43F8FA
:10387000146CE66A03F8102C032A43F80C6C03D18D
:10388000A66A0EB103F810CC666CD4F8309043F8F9
:10389000086C43F8045CC846C9EB080618F801AB8D
:1038A000BAF1A50FF8D0B608A6451E805D609D60F0
:1038B00000F1010003F12803C9D1BDE8F0872046DB
:1038C000BDE8F0872DE9F84F0A9E0C9C0F4615467F
:1038D0009A46814620B940F23521644814F095FE9D
:1038E000042E04D940F23621604814F08EFE3CB913
:1038F000A80001F0A7FC8346002800F0B38000E098
:10390000A346582001F09EFC044688B1AD002A462B
:10391000C0F830B0A521584630F0D5F8236B043DEF
:103920001D4425F007057B1E04F13302093705E02D
:10393000584601F01DFD95E0BB4206D013F8011F6B
:1039400002F8011F19780029F6D1042E4FF0000B60
:10395000B04604F1040728BF4FF00408384684F845
:103960003DB0C4F82C80C4F84480C4F848B001F0DD
:1039700039FA04F1180001F035FAC8F10503A36122
:10398000C4F850B024616462C4F84CB084F854B0F8
:1039900052464946284601F06FFA0B9B206003B15E
:1039A0001C6001F0DFFA324A324D1368DFF8EC9008
:1039B000013313602B683BBB2C601268012A2BD1AA
:1039C000984609EB080008F1140801F000FAB8F174
:1039D000640FF6D1DFF8C8A0DFF8C880504601F0C8
:1039E000F6F9404601F0F3F9234801F0F0F92348D5
:1039F00001F0EDF9224801F0EAF9224BC3F800A0EA
:103A0000214BC3F8008007E0204B1B6823B92B68CB
:103A1000DB6A9E4228BF2C601D4A13680133136085
:103A20001C4A23641168E36A14208B4200FB039054
:103A3000394688BF136001F0D8F901F0ADFA134B95
:103A40001B6863B12B68DB6A9E4208D9124B4FF0AA
:103A500080525A6040BFBFF34F8FBFF36F8F01207A
:103A6000BDE8F88F4FF0FF30BDE8F88FCBCE0500F2
:103A7000442D0020182D00202C2D0020782C002013
:103A8000602D00208C2C0020282D0020902C002060
:103A9000402D0020742D002000ED00E0B02C00200F
:103AA000982C0020482D002038B5044601F05AFA21
:103AB0000CB91E4B1C68251D284601F0BAF9A36AF3
:103AC0001BB104F1180001F0B4F92946184801F0BF
:103AD0008CF9184A136801331360174A13680133CD
:103AE000136001F059FA154B1B68EBB10F4B1B68C3
:103AF0009C4211D1124B1B6823B140F22631114870
:103B000014F083FD104B4FF080525A6040BFBFF35A
:103B10004F8FBFF36F8F38BD01F024FAFFF746FED9
:103B2000BDE8384001F038BA38BD00BF182D00207C
:103B3000782C0020942C0020402D0020902C002078
:103B4000202D0020CBCE050000ED00E01FB50024A5
:103B5000154B019303940294009423466422134965
:103B60001348FFF7AFFE012813D1FFF755FC0128DA
:103B70000FD1202383F311880E4B4FF0FF321A60D0
:103B80000D4B18600D4B1C6004B0BDE8104001F0F7
:103B900085B938B90A4840F2596104B0BDE810400F
:103BA00014F033BD04B010BD5C2D00200ECF050015
:103BB000A93E02001C2D0020902C0020242D002066
:103BC000CBCE0500024A136801331360704700BF73
:103BD000202D0020014B1868704700BF242D0020C5
:103BE00010B5044638B9054B1C6824B940F24A7137
:103BF000034814F00AFD04F1340010BD182D002014
:103C0000CBCE050038B5084C084A23681268034437
:103C10009342054604D940F2B371054814F0F5FC0F
:103C200020682844206038BD242D00201C2D002051
:103C3000CBCE05003D4B1B682DE9F74F002B3ED145
:103C40003B4B1A6801321A601D689DB9394C2368D4
:103C50001B6823B140F2D271374814F0D6FC374BC1
:103C60002268196821601A60354A136801331360AD
:103C7000FFF79CFD334C01942368334E334F9D4234
:103C80004FF0000B11D3DFF8AC80DFF8CC90D8F800
:103C900000201268002A39D0D8F80020D268D468F1
:103CA00061688D4212D2019B19603A68D16A142270
:103CB0004A43B258022A28BF4FF0010B2BE0244A96
:103CC0001368013313604FF0000B24E004F1040A81
:103CD000504601F0AEF8A16A19B104F1180001F0E4
:103CE000A8F8E06AD9F800101423884288BFC9F800
:103CF0000000514603FB006001F077F83868E16A84
:103D0000C26A914228BF4FF0010BC0E7019B4FF000
:103D1000FF321A60C9E70F4A1268002A18BF4FF035
:103D2000010B584603B0BDE8F08F00BF202D0020E6
:103D3000242D00208C2C0020CBCE0500282D002027
:103D4000142D00201C2D0020B02C0020182D002048
:103D5000AC2C0020782D0020742D00202DE9F0419E
:103D60002E4C236823B940F296612D4814F04DFC87
:103D700001F0F8F82368013B236023680BB10024AD
:103D800046E0284B1B68002BF9D0274D274EDFF863
:103D9000B0802B68F3B1EB68DC68271D04F11800D4
:103DA00001F047F8384601F044F8E36A326814201D
:103DB000934200FB0380394688BF336001F015F859
:103DC0001B4BE26A1B68DB6A9A42E2D3194B012261
:103DD0001A60DCE7184C23686BB9164B1C68012C81
:103DE000CDD1164B4FF080525A6040BFBFF34F8F7A
:103DF000BFF36F8F0CE00F4D01262368002BECD032
:103E0000FFF718FF00B12E602368013B2360F4E741
:103E100001F0C2F82046BDE8F08100BF202D00204F
:103E2000CBCE0500442D00202C2D0020742D002029
:103E3000182D0020782D0020AC2C002000ED00E093
:103E4000B02C002010B5044648B9124B4FF08052F8
:103E50005A6040BFBFF34F8FBFF36F8F10BD0E4B43
:103E60001B6823B140F2AB310C4814F0CEFBFFF7D6
:103E7000A9FE0B4B1B681C440A4B1868043000F069
:103E8000D8FF2046FFF7A4FCFFF768FF0028DCD02E
:103E900010BD00BF00ED00E0202D0020CBCE0500BE
:103EA000242D0020182D0020F8B5204D2E46204F3F
:103EB0002B68F3B1FFF786FE3C68FFF74FFF002C3D
:103EC000F6D001F04FF81A4BDB68DC68201D00F0DB
:103ED000B0FF184A1368013B13603368013B33603D
:103EE00001F05AF8206B01F043FA204601F040FA45
:103EF000DEE712F033F8FFF741FC0128D7D9FFF7CE
:103F000061FE0D4B1A680D4B1B689A4204D24FF4A8
:103F100030610B4814F079FBFFF730FC012801D920
:103F200001F0D8F8FFF71AFFC1E700BF942C00207A
:103F3000782C0020442D00201C2D0020242D002052
:103F4000CBCE05002DE9F04705461746FFF73AFEB0
:103F5000204B1B688B4236D80026DFF88CA03446F5
:103F60004FF0280906F1500109FB04500122514489
:103F7000FFF756FC143E16F1640F4FF02808044476
:103F8000F0D1154B0222196808FB0450FFF748FCDA
:103F9000124B04441968022208FB0450FFF740FC4E
:103FA000044404220E4908FB0450FFF739FC044482
:103FB00008FB045003220B49FFF732FC04441FB1F5
:103FC00000233B6000E00024FFF7C8FE2046BDE868
:103FD000F08700BF442D00208C2C0020282D0020CD
:103FE000782C0020602D0020B02C0020F8B5244B48
:103FF0001A68244B12B101221A60F8BD224C1A60D3
:1040000023681B6B1A68B2F1A53F0BD15A68B2F155
:10401000A53F07D19A68B2F1A53F03D1DB68B3F1A0
:10402000A53F04D020682168343114F0F3FA174D0D
:10403000174F2E462A68164914235A43BA5852B9C4
:104040002B6823B940F6F901124814F0DEFA336800
:10405000013B3360EEE70D4A12685343C81808333A
:1040600045686D6845600B449D4204BF6B684360C2
:10407000142303FB02125368DB682360F8BD00BF02
:10408000202D0020782D0020182D0020742D0020D8
:10409000B02C0020CBCE050070B50D46064620B9E9
:1040A00040F60B110E4814F0B0FA0E4C2168304661
:1040B000183100F0A6FE2068043000F0BAFE6B1C38
:1040C00006D1216808480431BDE8704000F08DBE7B
:1040D000064B18682844BDE87040FFF779BB00BF65
:1040E000CBCE0500182D0020602D0020242D0020AF
:1040F000F8B50E461746054620B940F68A110E4817
:1041000014F083FA0D4C21682846183100F06DFE3A
:104110002068043000F08DFE012F06D12168084888
:104120000431BDE8F84000F060BE064B186830442A
:10413000BDE8F840FFF74CBBCBCE0500182D0020A2
:10414000602D0020242D002038B5C368DC6824B918
:1041500040F6E511154814F058FA04F11805284600
:1041600000F067FE124B1B687BB9251D284600F046
:1041700060FE104AE36A11688B4288BF13600E4AE2
:104180001420294600FB032001E00C48294600F0DA
:104190002CFE0B4BE26A1B68DB6A9A4285BF094B17
:1041A000012000201860FFF701FB38BDCBCE0500D1
:1041B000202D0020742D0020B02C00202C2D00205C
:1041C000182D0020782D002010B5044620B940F6A7
:1041D0004521054814F019FA044B1B682360044B71
:1041E0001B68636010BD00BFCBCE0500142D0020FE
:1041F000242D002038B50D46044620B940F64F2145
:10420000134814F002FA25B94FF42561104814F050
:10421000FCF900F0A7FE0F4B19682B685A1C10D050
:104220000D4A206812689042626801D091420AD219
:10423000881A834207D9521A13442B602046FFF78D
:10424000C3FF002400E0012400F0A6FE204638BD94
:10425000CBCE0500242D0020142D0020014B01227F
:104260001A607047782D0020084B186860B9084B19
:104270001B6853B9074B1868074B1B68013883420A
:1042800014BF012002207047002070472C2D002011
:10429000782D0020442D0020602D0020002905DC11
:1042A00008B9034B186800EB8100C264704700BF77
:1042B000182D0020002906DC08B9044B186800EB13
:1042C0008100C06C70470020704700BF182D00208F
:1042D000014B1868704700BF182D0020054B1B6864
:1042E00033B1054B1B68002B0CBF02200020704728
:1042F00001207047902C0020202D0020F8B50446A6
:1043000000282CD0164DC36A2A68D26A934226D25E
:104310008269002AA1BF2A68D26AC2F105028261BD
:104320001048142202FB030362699A42064613D125
:10433000271D384600F07DFD2B680B4ADB6A1168AB
:10434000E3628B4200D913601420394600FB0360FE
:10435000BDE8F84000F049BD2B68DB6AE362F8BDB8
:10436000182D0020B02C0020742D002038B50446F4
:1043700008B9002038BD184B1B68984204D040F69D
:10438000EF51164814F041F9A36C23B940F6F151EE
:10439000124814F03AF9A36CE16A626C013B914255
:1043A000A364E6D0002BE4D1251D284600F041FD92
:1043B000636CE362C3F10502A261094A11688B4292
:1043C00088BF1360074A142000FB0320294600F031
:1043D0000CFD012038BD00BF182D0020CBCE0500FC
:1043E000742D0020B02C0020044B1A681AB11968F3
:1043F0008A6C01328A641868704700BF182D00204B
:104400002DE9F041274C1D4680460F46164600F028
:10441000A9FD236893F85430022B23D02268136D32
:1044200023EA080010652368012283F85420CDB1E7
:104430002068043000F0FDFC6B1C05D121681A488F
:10444000043100F0D2FC04E0184B18682844FFF750
:10445000BFF9174B4FF080525A6040BFBFF34F8FE8
:10446000BFF36F8F00F098FD00F07CFD16B123685C
:104470001B6D3360236893F85430012B1FBF094B29
:104480001B68196DB94318BF196523684FF0000206
:1044900014BF0125002583F8542000F07DFD284637
:1044A000BDE8F081182D0020602D0020242D002073
:1044B00000ED00E0F8B50E4615461F46044620B94B
:1044C00041F27901284814F0A0F800F04BFD0FB13B
:1044D000236D3B6094F85430022284F854206A1E05
:1044E000DBB2032A0DD8DFE802F002050B09226DCA
:1044F000164305E0226D0132226502E0022B2DD029
:104500002665012B28D1251D284600F092FC174A6C
:10451000E36A11688B4288BF1360154A142000FBC0
:104520000320294600F061FCA36A23B141F2B101E6
:104530000D4814F06AF8FFF739F90E4BE26A1B6870
:10454000DB6A9A4208D90C4B4FF080525A6040BF48
:10455000BFF34F8FBFF36F8F012400E0002400F002
:104560001BFD2046F8BD00BFCBCE0500742D0020FA
:10457000B02C0020182D002000ED00E02DE9F843BC
:10458000089F884615469946044620B941F2E40141
:104590002D4814F03AF800F013FDEFF311862023B4
:1045A00083F31188B9F1000F02D0236DC9F80030F0
:1045B00094F85430022284F854206A1EDBB2032A95
:1045C0000FD8DFE802F002060C0A226D42EA080268
:1045D00001E0226D0132226503E0022B2FD0C4F8E6
:1045E0005080012B01D001202AE0A36A23B141F2BF
:1045F0002B11154814F009F8144B1B687BB9251DC5
:10460000284600F016FC124AE36A11688B4288BF04
:104610001360104A1420294600FB032002E00E48D4
:1046200004F1180100F0E1FB0C4BE26A1B68DB6A45
:104630009A42D8D9002FD6D00120386000E000205F
:1046400086F31188BDE8F883CBCE0500202D00202D
:10465000742D0020B02C00202C2D0020182D0020BF
:1046600038B51546026C044632B9056845BB40684A
:10467000FFF77CFE656024E06DB980682FF0FFF9DC
:10468000A268236C13446268A360934218D3236822
:10469000A360284615E0C0682FF0F1F9236CE268AA
:1046A00021685B421A448A42E2603EBF62689B18FE
:1046B000E360022D04D1A36B13B1A36B013BA36391
:1046C0000020A36B0133A36338BD034610B41A6CFA
:1046D000084662B1D9685C681144A142D96024BF20
:1046E0001968D960D9685DF8044B2FF0C8B95DF836
:1046F000044B704738B5044600F034FC04F124053F
:10470000A36C002B0BDD636A4BB12846FFF71CFD41
:1047100008B1FFF7A3FDA36C013BA364F0E74FF0E2
:10472000FF33A36400F038FC00F01CFC04F110051A
:10473000636C002B0BDD23694BB12846FFF704FDAA
:1047400008B1FFF78BFD636C013B6364F0E74FF04A
:10475000FF336364BDE8384000F01EBC38B50D4639
:10476000044620B94FF48871194813F04EFF00F049
:10477000F9FB216CE36B2268A2604B43D0185B1AF3
:1047800013446060E36000204FF0FF33A063636474
:10479000A3648DB92369BBB104F11000FFF7D4FC09
:1047A000012811D10B4B4FF080525A6040BFBFF32C
:1047B0004F8FBFF36F8F07E004F1100000F007FB8D
:1047C00004F1240000F003FB00F0E6FB012038BDFB
:1047D00013CF050000ED00E070B50D46064620B988
:1047E00040F24B11104813F010FF1DB105FB06F00D
:1047F000013000E028464C3000F024FD044660B152
:104800000DB9206002E000F14C030360E66325640B
:1048100001212046FFF7A2FF04E040F28711024881
:1048200013F0F3FE204670BD13CF050038B50D46DA
:10483000044620B940F252210C4813F0E6FEAC4287
:1048400004D240F25321094813F0DFFE2046022231
:104850000021FFF7C1FF044608B1856304E040F280
:104860006221024813F0D1FE204638BD13CF050067
:104870002DE9FF47884601921E46044620B940F2C2
:104880006F21504813F0C1FEB8F1000F03D1236C23
:10489000002B40F08280022E03D1E36B012B40F00D
:1048A0008280FFF71BFD18B9019B002B40F081802F
:1048B0000027DFF814A1B94600F054FBA26BE36BAC
:1048C0009A4201D3022E1BD1324641462046FFF7C1
:1048D000C7FE636A33B104F12400FFF735FC0128F9
:1048E0000AD100E040B1384B4FF080525A6040BFCF
:1048F000BFF34F8FBFF36F8F00F04EFB01205EE0E0
:10490000019D1DB900F048FB284658E017B902A8E0
:10491000FFF75AFC00F040FBFFF754F900F022FBD0
:10492000636C013308BFC4F84490A36C013308BF23
:10493000C4F8489000F030FB01A902A8FFF75AFC28
:1049400020BB00F00FFBA76BE56B00F025FBAF422F
:1049500016D1019904F11000FFF79EFB2046FFF7E6
:10496000C9FEFFF7FBF908B10127A5E74FF0805317
:10497000CAF8043040BFBFF34F8FBFF36F8FF3E728
:104980002046FFF7B7FEFFF7E9F9EDE72046FFF70E
:10499000B1FEFFF7E3F9002011E04FF41C71094864
:1049A00013F033FE77E740F27121064813F02DFE35
:1049B00077E74FF41D71034813F027FE78E704B042
:1049C000BDE8F08713CF050000ED00E038B54C20BE
:1049D00000F038FC0446C8B101230025C3634FF042
:1049E000FF33856345604364056083648560C5600B
:1049F0000564103000F0EBF904F1240000F0E7F951
:104A00002B462A4629462046FFF732FF204638BD6E
:104A100038B5044620B94FF4F9710B4813F0F5FD91
:104A20006568FFF755FC854209D1E368013BE36007
:104A30003BB91A4619462046FFF71AFF01E000204D
:104A400038BD012038BD00BF13CF05002DE9F0416E
:104A50000E4690461D46044620B940F22C4122489D
:104A600013F0D3FD0EB9236C73BB022D02D1E36B9F
:104A7000012B2FD100F0A4FAEFF31187202383F349
:104A80001188A26BE36B9A4201D3022D1AD12A46F8
:104A900031462046FFF7E4FDA36C01330DD1636A74
:104AA00073B104F12400FFF74FFB48B1B8F1000FD8
:104AB00006D00120C8F8000012E0A36C0133A36403
:104AC00001200DE000200BE040F22D41064813F0DC
