:020000021000EC
:10F0000080FF0020E52302000D240200A12602005B
:10F010001124020013240200152402000000000045
:10F02000000000000000000000000000C5CC03004C
:10F030001924020000000000E5CC03001D2402009A
:10F04000F95303001F24020045D10400217003007E
:10F05000457003001F2402005D8604000D88040033
:10F060001F2402001F2402001F2402001F2402008C
:10F070001F2402001F2402001F2402001F2402007C
:10F080001F240200093802001F2402001F2402006E
:10F09000195C03001F2402007D5603001F24020098
:10F0A0001F2402001F2402001F2402001F2402004C
:10F0B0001F2402001F2402000000000000000000C6
:10F0C0001F2402001F2402001F2402006970030095
:10F0D0001F2402001F2402005D3103000000000015
:10F0E0000000000000000000000000000000000020
:10F0F0000000000000000000000000000000000010
:10F1000000000000000000000000000000000000FF
:10F1100000000000000000000000000000000000EF
:10F1200000000000000000000000000000000000DF
:10F1300000000000000000000000000000000000CF
:10F1400000000000000000000000000000000000BF
:10F1500000000000000000000000000000000000AF
:10F16000000000000000000000000000000000009F
:10F17000000000000000000000000000000000008F
:10F18000000000000000000000000000000000007F
:10F19000000000000000000000000000000000006F
:10F1A000000000000000000000000000000000005F
:10F1B000000000000000000000000000000000004F
:10F1C000000000000000000000000000000000003F
:10F1D000000000000000000000000000000000002F
:10F1E000000000000000000000000000000000001F
:10F1F000000000000000000000000000000000000F
:10F2000010B5054C237833B9044B13B10448AFF360
:10F2100000800123237010BDC828002000000000DA
:10F22000E0BB050008B5034B1BB103490348AFF32E
:10F23000008008BD00000000CC280020E0BB0500D5
:10F24000154B002B08BF134B9D46A3F5803A0021B8
:10F250008B460F461348144A121A2FF08CFF0F4B9F
:10F26000002B00D098470E4B002B00D09847002071
:10F27000002104000D000D48002802D00C482FF09A
:10F2800054FE2FF073FE2000290007F0A7F82FF09E
:10F2900059FE00BF0000080080FF002000000000B1
:10F2A00000000000C8280020CCF100202BEF040053
:10F2B0000000000030B40549054C064B064D0748D8
:10F2C000074A256008601A6030BC70471C26002081
:10F2D0001826002014260020780505008C0505005E
:10F2E0009405050010B5FFF7E5FF242004F07AFC33
:10F2F000054C0649064A24680C60106018B1BDE848
:10F30000104000F0D1B910BDE0050500EC28002048
:10F31000E428002001207047012070470120704739
:10F32000012070470120704701207047002070477E
:10F330000020704701207047002070470020704770
:10F34000002070470622782302600B60704700BFE0
:10F35000002303700B601360704700BF00224FF45E
:10F36000C02302600B607047054B0649064A0748F8
:10F3700018600023C1E90033C2E90033704700BFC1
:10F380001CDB0020EC280020E4280020E5F201002E
:10F3900003230373704700BF03230371704700BF4B
:10F3A000022303730120704710B5074B03F10802D5
:10F3B00050330446026040F8083F01F013FF204636
:10F3C00002F0E4FB204610BD10060500094B10B505
:10F3D00003F1080250330446026040F8083F01F090
:10F3E00001FF204602F0D2FB20462EF0DDFE204633
:10F3F00010BD00BF1006050010B5054A01210446E6
:10F4000002F024FCC82806BF01202073002010BD94
:10F41000A005050010B5044A0446012102F032FCA3
:10F420000023237310BD00BFA005050030B50D46B5
:10F430008FB01A49044602F045FCC82804D1A38BBA
:10F44000AB420ED00FB030BD1549012002F0C6FF0F
:10F45000A18B204602F08BFC4FF6FF73A3830FB005
:10F4600030BD236A0F4A013306AD236228462021AE
:10F470002FF0CEFE2A4603210120039508F062FEFC
:10F48000094B0093094B04932046094A094903ACF0
:10F4900004AB059402F0BEFCD4E700BF0F0000658A
:10F4A000E4050500F00505000C29002000650300B7
:10F4B0000829002000650100022303710120704724
:10F4C000084B10B5044603F10801503340F8081CFE
:10F4D00044F8083901F086FE204602F057FB20462A
:10F4E00010BD00BF1006050010B5044A04460121F6
:10F4F000083802F0C7FB0023237110BDA0050500EA
:10F50000094B10B503F108025033A0F1080440F88C
:10F51000082C036001F066FE204602F037FB20460F
:10F520002EF042FE204610BD1006050010B5064A1A
:10F5300004460121083802F089FBC82806BF0120D3
:10F540002071002010BD00BFA00505000A4630B59F
:10F5500053680B4943F00F038B420A490A4B054697
:10F5600003C985B002AC84E8030011460094284624
:10F570000CBFC8224FF4CA7202F006FC05B030BDC1
:10F580000F000065002900200829002030B504463E
:10F5900087B00D460120204902F020FF237B022B7B
:10F5A00029D16B681D4A43F00F0393420FD01C4AC8
:10F5B0001C4B92E8030004AA82E80300009229464B
:10F5C00020464FF4CA7202F0DFFB07B030BD164A86
:10F5D00003920321012008F0B5FD04AB134A009308
:10F5E0002046049229460F4B03ACC822059402F032
:10F5F000CBFB07B030BD0A4A0A4B92E8030004AACD
:10F6000082E8030000922946204640F2F71202F0F9
:10F61000BBFB07B030BD00BFA40505000F000065AF
:10F620000029002008290020D005050000650300FE
:10F6300030B54B68194A43F00F03934285B00C462E
:10F64000054613D1828B4FF6FF739A421ED0144A9F
:10F65000144B92E8030002AA82E8030000922146BC
:10F660002846C82202F090FB05B030BD0C4A0D4B75
:10F6700092E8030002AA82E803000092214628468D
:10F680004FF4CA7202F080FB05B030BD01224FF486
:10F690007A7102F04DFBA883D9E700BF0F00006527
:10F6A0000029002008290020002210B51146044638
:10F6B00002F092FA04F108000022084901F082FDEC
:10F6C000074B002103F108004FF6FF725033206012
:10F6D000A3602162A283204610BD00BF040605007E
:10F6E000100605002DE9F04383B007461868019025
:10F6F000002A40F0AE80002900F0FE809DF8040052
:10F7000038700120884280F005819DF805403C5406
:10F71000022A00F1010000F2A480814200F2EE8092
:10F720009C88002C00F0A3804FF0000C042462E0C1
:10F73000D3F8088008EB050604F1040E72457668DC
:10F7400004D8814240F2A6803E54013004F1050EF7
:10F75000724507D8814240F2A280C6F3072E07F80F
:10F7600000E0013004F1060E724507D8814240F2F4
:10F770009B80C6F3074E07F800E0013004F1070E46
:10F78000964506D3814240F29380C6F307663E5405
:10F7900001309E6804F1080E35449645AD6804D3E7
:10F7A000814240F28D803D54013004F10906B2429D
:10F7B00006D8814240F28980C5F307263E540130C5
:10F7C00004F10A06B24205D881420DD9C5F30746B5
:10F7D0003E54013004F10B06B24205D8814203D9F0
:10F7E000C5F307653D5401309D880CF1010C65455A
:10F7F00004F10C043BD9D3F80880251F08EB05065B
:10F800009442D6F800E004D3884263D207F800E0BF
:10F810000130661CB24205D881422BD9CEF30726AF
:10F820003E540130A61CB24205D8814225D9CEF300
:10F8300007463E540130E61CB2423FF679AF8142A2
:10F8400055D9CEF3076E07F800E09E6801302E44CC
:10F8500072E7012A4FF000007FF654AF022A7FF6CC
:10F860005CAF032A4ED99C88002C7FF45DAF03B0B7
:10F87000BDE8F083A61CB242DDD89E682E4404F198
:10F88000030E72453FF658AF04F1040E72457668D8
:10F890003FF65CAF04F1050E72453FF663AF04F12D
:10F8A000060E9645FFF46AAFE61D9642FFF471AF6F
:10F8B0009E68354404F108069642AD68FFF475AFC2
:10F8C00004F10906B2423FF67BAF04F10A06B242E8
:10F8D0008AD97FE704F101094A45CBD904F1020E28
:10F8E0007245CCD9E61C9642FFF424AF01E0D3F870
:10F8F000088008EB0506C7E7084611E79DF80640B3
:10F900003C54013081427FF60BAF9DF807403C54D8
:10F91000013005E7022AA4D802E700BF2DE9F04331
:10F9200083B0074618680190002A40F0AE80002995
:10F9300000F0FE809DF8040038700120884280F0BD
:10F9400005819DF805403C54022A00F1010000F2B7
:10F95000A480814200F2EE809C88002C00F0A380FD
:10F960004FF0000C042462E0D3F8088008EB050691
:10F9700004F1040E7245766804D8814240F2A680F4
:10F980003E54013004F1050E724507D8814240F221
:10F99000A280C6F3072E07F800E0013004F1060E3E
:10F9A000724507D8814240F29B80C6F3074E07F8A4
:10F9B00000E0013004F1070E964506D3814240F283
:10F9C0009380C6F307663E5401309E6804F1080E2A
:10F9D00035449645AD6804D3814240F28D803D5454
:10F9E000013004F10906B24206D8814240F2898012
:10F9F000C5F307263E54013004F10A06B24205D889
:10FA000081420DD9C5F307463E54013004F10B067F
:10FA1000B24205D8814203D9C5F307653D54013090
:10FA20009D880CF1010C654504F10C043BD9D3F819
:10FA30000880251F08EB05069442D6F800E004D3A1
:10FA4000884263D207F800E00130661CB24205D854
:10FA500081422BD9CEF307263E540130A61CB24278
:10FA600005D8814225D9CEF307463E540130E61C25
:10FA7000B2423FF679AF814255D9CEF3076E07F80F
:10FA800000E09E6801302E4472E7012A4FF000002A
:10FA90007FF654AF022A7FF65CAF032A4ED99C88CA
:10FAA000002C7FF45DAF03B0BDE8F083A61CB2422A
:10FAB000DDD89E682E4404F1030E72453FF658AF20
:10FAC00004F1040E724576683FF65CAF04F1050E52
:10FAD00072453FF663AF04F1060E9645FFF46AAF38
:10FAE000E61D9642FFF471AF9E68354404F10806A6
:10FAF0009642AD68FFF475AF04F10906B2423FF6D5
:10FB00007BAF04F10A06B2428AD97FE704F101090A
:10FB10004A45CBD904F1020E7245CCD9E61C964277
:10FB2000FFF424AF01E0D3F8088008EB0506C7E72F
:10FB3000084611E79DF806403C54013081427FF6AB
:10FB40000BAF9DF807403C54013005E7022AA4D8CA
:10FB500002E700BF2DE9F04782B006461868019021
:10FB6000002A40F0AE80002900F0E4819DF80400F6
:10FB700030700120814240F2EB819DF80540345401
:10FB8000022A00F1010000F2A480814200F2D48137
:10FB90009C88002C00F0A4804FF0000C042460E04E
:10FBA0009D683D4404F1040E72456D6804D881429D
:10FBB00040F247813554013004F1050E724507D8F3
:10FBC000814240F24381C5F3072E06F800E0013080
:10FBD00004F1060E724507D8814240F23C81C5F31C
:10FBE000074E06F800E0013004F1070E724506D812
:10FBF000814240F23481C5F30765355401309D6878
:10FC000004F1080E2F447245BD6804D8814240F2C9
:10FC10002E813554013004F10907BA4206D88142D9
:10FC200040F22A81C5F307273754013004F10A074F
:10FC3000974205D381420DD9C5F3074737540130A8
:10FC400004F10B07BA4205D8814203D9C5F3076511
:10FC5000355401309D880CF1010C654504F10C040C
:10FC60003FD99D68271F05EB070E9442DEF800E0A0
:10FC700005D3814240F2068106F800E00130651CA0
:10FC8000954206D3814240F2CB80CEF3072535540E
:10FC90000130A51C954206D3814240F2C580CEF3C7
:10FCA000074535540130E51C9542FFF479AF814298
:10FCB00040F23981CEF3076E06F800E001309D680E
:10FCC0006FE7012A4FF000007FF654AF022A7FF65B
:10FCD0005CAF032A40F234819C88002C7FF45CAF37
:10FCE00004249D89002D00F00E8125464FF0000E62
:10FCF00065E0D3F8109009EB0C0705F104084245C4
:10FD00007F6804D8814240F2D6803754013005F133
:10FD10000508424507D8814240F2D280C7F3072840
:10FD200006F80080013005F10608424507D88142F7
:10FD300040F2CB80C7F3074806F80080013005F198
:10FD40000708424506D8814240F2C380C7F30767DF
:10FD5000375401301F6905F1080867444245BF6800
:10FD600004D8814240F2BD803754013005F1090CBE
:10FD7000624507D8884280F0B980C7F3072C06F89F
:10FD800000C0013005F10A0C624506D881420ED947
:10FD9000C7F3074C06F800C0013005F10B0C6245B3
:10FDA00005D8814203D9C7F30767375401309F89CB
:10FDB0000EF1010EBE4505F10C0580F0A480D3F8CC
:10FDC0001090A5EB040C09EB0C07AA42D7F80080B1
:10FDD00005D8884280F09A8006F8008001306F1CB8
:10FDE000BA4205D8814256D9C8F3072737540130A3
:10FDF000AF1CBA4205D8814250D9C8F307473754DF
:10FE00000130EF1CBA423FF674AF814240F28D8060
:10FE1000C8F3076806F800801F69013067446CE783
:10FE2000A51C9542FFF43FAF9D6804F1030E724597
:10FE30003FF6B7AE3D4404F1040E72456D683FF6DF
:10FE4000BBAE04F1050E72453FF6C2AE04F1060EDC
:10FE500072453FF6C9AEE51DAA423FF6D0AE9D6899
:10FE60003D4404F10807BA42AD683FF6D4AE04F150
:10FE70000907BA423FF6DAAE04F10A07BA427FF642
:10FE8000E9AEDDE604F101089045C9D204F10208AB
:10FE90009045CAD207E7AF1CBA42B2D81F6967447F
:10FEA00005F1030842453FF628AF05F10408424535
:10FEB0007F683FF62CAF05F1050842453FF633AFAA
:10FEC00005F1060842453FF63AAFEF1DBA423FF64C
:10FED00041AF1F69674405F1080C6245BF683FF6F2
:10FEE00045AF05F1090C62453FF64CAF05F10A0C30
:10FEF00062453FF652AF9F890EF1010EBE4505F1F6
:10FF00000C05FFF45CAF02B0BDE8F08705F1010A13
:10FF10005245C0D905F102084245C1D9EF1C9742AC
:10FF2000FFF4E9AE03E09D6884E7D3F8109009EB95
:10FF30000C07BAE708462BE69DF80640345401301A
:10FF400081427FF625AE9DF80740345401301FE60C
:10FF5000022A3FF6BEAE1BE62DE9F04782B0064608
:10FF600018680190002A40F0AE80002900F0E4817A
:10FF70009DF8040030700120814240F2EB819DF831
:10FF800005403454022A00F1010000F2A4808142AD
:10FF900000F2D4819C88002C00F0A4804FF0000C6B
:10FFA000042460E09D683D4404F1040E72456D68D0
:10FFB00004D8814240F247813554013004F1050EE6
:10FFC000724507D8814240F24381C5F3072E06F8F7
:10FFD00000E0013004F1060E724507D8814240F27C
:10FFE0003C81C5F3074E06F800E0013004F1070E2E
:10FFF000724506D8814240F23481C5F30765355415
:020000022000DC
:1000000001309D6804F1080E2F447245BD6804D884
:10001000814240F22E813554013004F10907BA4281
:1000200006D8814240F22A81C5F3072737540130B0
:1000300004F10A07974205D381420DD9C5F307475A
:100040003754013004F10B07BA4205D8814203D975
:10005000C5F30765355401309D880CF1010C6545E9
:1000600004F10C043FD99D68271F05EB070E94424D
:10007000DEF800E005D3814240F2068106F800E098
:100080000130651C954206D3814240F2CB80CEF30D
:10009000072535540130A51C954206D3814240F214
:1000A000C580CEF3074535540130E51C9542FFF479
:1000B00079AF814240F23981CEF3076E06F800E055
:1000C00001309D686FE7012A4FF000007FF654AFC2
:1000D000022A7FF65CAF032A40F234819C88002C10
:1000E0007FF45CAF04249D89002D00F00E8125462D
:1000F0004FF0000E65E0D3F8109009EB0C0705F106
:10010000040842457F6804D8814240F2D6803754C3
:10011000013005F10508424507D8814240F2D280FE
:10012000C7F3072806F80080013005F106084245AC
:1001300007D8814240F2CB80C7F3074806F8008019
:10014000013005F10708424506D8814240F2C380DC
:10015000C7F30767375401301F6905F10808674482
:100160004245BF6804D8814240F2BD803754013017
:1001700005F1090C624507D8884280F0B980C7F3C1
:10018000072C06F800C0013005F10A0C624506D8BC
:1001900081420ED9C7F3074C06F800C0013005F1C3
:1001A0000B0C624505D8814203D9C7F30767375462
:1001B00001309F890EF1010EBE4505F10C0580F05E
:1001C000A480D3F81090A5EB040C09EB0C07AA420D
:1001D000D7F8008005D8884280F09A8006F8008021
:1001E00001306F1CBA4205D8814256D9C8F307279F
:1001F00037540130AF1CBA4205D8814250D9C8F3F8
:10020000074737540130EF1CBA423FF674AF8142C2
:1002100040F28D80C8F3076806F800801F6901303E
:1002200067446CE7A51C9542FFF43FAF9D6804F15D
:10023000030E72453FF6B7AE3D4404F1040E72451D
:100240006D683FF6BBAE04F1050E72453FF6C2AED7
:1002500004F1060E72453FF6C9AEE51DAA423FF60F
:10026000D0AE9D683D4404F10807BA42AD683FF640
:10027000D4AE04F10907BA423FF6DAAE04F10A0738
:10028000BA427FF6E9AEDDE604F101089045C9D235
:1002900004F102089045CAD207E7AF1CBA42B2D8AF
:1002A0001F69674405F1030842453FF628AF05F191
:1002B000040842457F683FF62CAF05F1050842452A
:1002C0003FF633AF05F1060842453FF63AAFEF1D62
:1002D000BA423FF641AF1F69674405F1080C624519
:1002E000BF683FF645AF05F1090C62453FF64CAFDC
:1002F00005F10A0C62453FF652AF9F890EF1010EDF
:10030000BE4505F10C05FFF45CAF02B0BDE8F08717
:1003100005F1010A5245C0D905F102084245C1D98B
:10032000EF1C9742FFF4E9AE03E09D6884E7D3F841
:10033000109009EB0C07BAE708462BE69DF806403B
:100340003454013081427FF625AE9DF80740345485
:1003500001301FE6022A3FF6BEAE1BE62DE9F0474C
:1003600082B0064618680190002A40F0AC8000294F
:1003700000F0BE829DF8040030700120814240F2FE
:10038000C7829DF805403454022A00F1010000F2B2
:10039000A280814200F2AE829C88002C00F0A280F4
:1003A0004FF0000C04245EE09D6805EB0708251D56
:1003B000AA42D8F804E005D8814240F23F8106F80D
:1003C00000E00130651DAA4206D8814240F23A8120
:1003D000CEF3072535540130A51DAA4206D8814227
:1003E00040F23481CEF3074535540130E51DAA4271
:1003F00007D8814240F22E81CEF3076E06F800E066
:1004000001309D6804F1080E2F447245BF6804D87E
:10041000814240F227813754013004F10905AA4294
:1004200006D8814240F22381C7F3072535540130B5
:1004300004F10A05AA4205D881420DD9C7F3074540
:100440003554013004F10B05AA4205D8814203D985
:10045000C7F30767375401309D880CF1010C6545DF
:1004600004F10C043FD99D68271F05EB0708A24241
:10047000D8F800E005D8884280F0FF8006F800E058
:100480000130651CAA4206D8814240F2C680CEF3F4
:10049000072535540130A51CAA4206D8814240F2F6
:1004A000C080CEF3074535540130E51CAA423FF623
:1004B0007BAF814240F21882CEF3076E06F800E06F
:1004C00001309D6871E7012A4FF000007FF656AFBA
:1004D000022A7FF65EAF032A40F210829C88002C2D
:1004E0007FF45EAF04249D89002D00F00F82254625
:1004F0004FF0000E62E01F6907EB0C092F1DBA4296
:10050000D9F8048005D8814240F2D58006F80080F1
:1005100001306F1DBA4206D8814240F2D080C8F344
:10052000072737540130AF1DBA4206D8814240F246
:10053000CA80C8F3074737540130EF1DBA4207D8C5
:10054000814240F2C480C8F3076806F80080013099
:100550001F6905F1080867444245D7F808C005D867
:10056000814240F2BD8006F800C0013005F1090764
:10057000BA4206D8814240F2B880CCF307273754FC
:10058000013005F10A07BA4205D881420ED9CCF3F1
:1005900007473754013005F10B07BA4206D88142AC
:1005A00004D9CCF3076C06F800C001309F890EF126
:1005B000010EBE4505F10C0580F0A4801F69A5EB76
:1005C000040C07EB0C09AA42D9F8008005D8884230
:1005D00080F0318106F8008001306F1CBA4205D8E6
:1005E000814258D9C8F3072737540130AF1CBA42AB
:1005F00005D8814252D9C8F3074737540130EF1C60
:10060000BA423FF678AF814240F26A81C8F3076888
:1006100006F8008001301F696EE7A51CAA423FF66C
:1006200044AF9D6805EB0708E51CAA423FF6BFAE44
:10063000251DAA42D8F804E03FF6C4AE651DAA42C3
:100640003FF6CAAEA51DAA423FF6D0AEE51DAA42AE
:100650003FF6D7AE9D682F4404F10805AA42BF6853
:100660003FF6DBAE04F10905AA423FF6E1AE04F124
:100670000A05AA427FF6F0AEE4E604F101094A4514
:10068000CBD904F1020E7245CED904F1030E964582
:10069000FFF48BAE29E1AF1CBA42B0D81F6907EB5B
:1006A0000C09EF1CBA423FF629AF2F1DBA42D9F808
:1006B00004803FF62EAF6F1DBA423FF634AFAF1D38
:1006C000BA423FF63AAFEF1DBA423FF641AF1F695B
:1006D000BC4405F10807BA42DCF808C03FF646AF53
:1006E00005F10907BA423FF64CAF05F10A07BA42D5
:1006F0003FF651AF9F890EF1010EBE4505F10C0585
:10070000FFF45CAF9C8A002C00F0DC802C464FF09C
:10071000000E63E09F69674404F1040842457F6866
:1007200004D8814240F2A7803754013004F1050813
:10073000424507D8814240F2A380C7F3072806F854
:100740000080013004F10608424507D8814240F29A
:100750009C80C7F3074806F80080013004F10708C1
:10076000424506D8814240F29480C7F30767375468
:1007700001309F6904F1080867444245D7F808C072
:1007800005D8814240F28E8006F800C0013004F1A5
:100790000907BA4206D8884280F08980CCF307273F
:1007A0003754013004F10A07BA4205D881420ED904
:1007B000CCF307473754013004F10B07BA4206D88F
:1007C000814204D9CCF3076C06F800C001309F8A3F
:1007D0000EF1010EBE4504F10C0473D29F69A4EB27
:1007E000050C07EB0C08A242D8F8008004D881421F
:1007F0006BD906F800800130671CBA4205D88142E7
:1008000029D9C8F3072737540130A71CBA4205D8A5
:10081000814223D9C8F3074737540130E71CBA4255
:100820003FF678AF814259D9C8F3076806F80080CF
:1008300001309F696FE705F1010A52457FF62BAF42
:1008400005F1020842457FF62CAF05F10308424549
:100850003FF652AE45E0A71CBA42DFD89F6904F1CB
:10086000030842453FF657AF674404F10408424588
:100870007F683FF65BAF04F1050842453FF662AF83
:1008800004F1060842453FF669AFE71DBA423FF65C
:1008900070AF9F69BC4404F10807BA42DCF808C095
:1008A0003FF675AF04F10907BA423FF67BAF04F19A
:1008B0000A07BA4280D89F8A0EF1010EBE4504F1A4
:1008C0000C048BD302B0BDE8F08704F101094A455E
:1008D000C1D904F102094A45C1D99FE79F69C3E71D
:1008E0001F6907EB0C09E0E69D6805EB07089FE62A
:1008F000084651E59DF806403454013081427FF6A8
:100900004BAD9DF807403454013045E52546F9E6E6
:10091000022A3FF6E0AD3FE52DE9F04383B00746FC
:1009200018680190002A40F0AE80002900F0FE8097
:100930009DF8040038700120884280F005819DF800
:1009400005403C54022A00F1010000F2A4808142DB
:1009500000F2EE809C88002C00F0A3804FF0000C89
:10096000042462E0D3F8088008EB050604F1040EC5
:100970007245766804D8814240F2A6803E54013028
:1009800004F1050E724507D8814240F2A280C6F3F9
:10099000072E07F800E0013004F1060E724507D873
:1009A000814240F29B80C6F3074E07F800E0013019
:1009B00004F1070E964506D3814240F29380C6F3B8
:1009C00007663E5401309E6804F1080E3544964592
:1009D000AD6804D3814240F28D803D54013004F172
:1009E0000906B24206D8814240F28980C5F3072643
:1009F0003E54013004F10A06B24205D881420DD9B5
:100A0000C5F307463E54013004F10B06B24205D847
:100A1000814203D9C5F307653D5401309D880CF12F
:100A2000010C654504F10C043BD9D3F80880251F5F
:100A300008EB05069442D6F800E004D3884263D25E
:100A400007F800E00130661CB24205D881422BD97C
:100A5000CEF307263E540130A61CB24205D881428F
:100A600025D9CEF307463E540130E61CB2423FF68C
:100A700079AF814255D9CEF3076E07F800E09E6842
:100A800001302E4472E7012A4FF000007FF654AF88
:100A9000022A7FF65CAF032A4ED99C88002C7FF493
:100AA0005DAF03B0BDE8F083A61CB242DDD89E68FE
:100AB0002E4404F1030E72453FF658AF04F1040EC4
:100AC000724576683FF65CAF04F1050E72453FF65D
:100AD00063AF04F1060E9645FFF46AAFE61D964239
:100AE000FFF471AF9E68354404F108069642AD6884
:100AF000FFF475AF04F10906B2423FF67BAF04F193
:100B00000A06B2428AD97FE704F101094A45CBD9E6
:100B100004F1020E7245CCD9E61C9642FFF424AFD4
:100B200001E0D3F8088008EB0506C7E7084611E79F
:100B30009DF806403C54013081427FF60BAF9DF892
:100B400007403C54013005E7022AA4D802E700BF61
:100B5000B0F5E06F08D0B0F5785F05D0B0F5817FD3
:100B600002D04FF0FF3070470820704710B5B0F545
:100B7000785F82B00C4663D016D843F602339842B1
:100B800037D02ED8B0F5817F00F08280B0F5E06FCD
:100B90004FD10821204600F071FF616808226846A5
:100BA0002EF0C5FA082030E044F20261884252D0AB
:100BB0002DD944F2036398426DD044F20463984205
:100BC00037D1204600F05AFF204600F08BFF838883
:100BD0008189828A5818104400EB4000800004305C
:100BE00013E043F60243984203D043F6025398427F
:100BF0001FD10146204600F041FF204600F072FF61
:100C0000808800EB40008000043002B010BDB0F5D9
:100C1000804F31D044F2013398420AD10146204638
:100C200000F02CFF204600F05DFF008801308000BE
:100C3000EBE702461949012001F0D0FB0020E4E770
:100C400043F60161204600F019FF204600F04AFFFC
:100C5000082002B010BD44F20361204600F00EFFF0
:100C6000204600F03FFF83888089184400EB400055
:100C70008000043002B010BD40F20321204600F095
:100C8000FDFE204600F02EFF808802304000BCE7C9
:100C900040F20111D6E744F20461DEE7880805005E
:100CA000F0B5B3F5785F83B006460D46144600F004
:100CB00079811ED843F60232934200F0658140F2FA
:100CC000848043F60242934200F00C8143F60252C4
:100CD000934240F015811946089800F0CFFE08981D
:100CE00000F000FF2246034629463046FFF714FE77
:100CF00069E044F202618B4200F00A814DD8B3F5FD
:100D0000804F00F0A78044F20132934240F0F88017
:100D10001946089800F0B2FE089800F0E3FEB0F81B
:100D200000C00746BCF1000F00F00181002003461F
:100D300002460DE085422DD9C1F307613154B7F861
:100D400000C001300132944503F1040340F2F18008
:100D500079689C42C95803D8854271D93154013011
:100D600003F1010C644506D885426ED9C1F3072C06
:100D700006F800C0013003F1020C644506D8854234
:100D800008D9C1F3074C06F800C0013003F1030C89
:100D90006445CFD9B7F800C0D4E744F20362934268
:100DA00000F0358144F20462934240F0A980089833
:100DB00000F064FE089800F095FE2246034629469E
:100DC0003046FFF7CBFA03B0F0BDB3F5817F00F0FA
:100DD0002D81B3F5E06F40F093800821089800F072
:100DE0004DFE089B0822596868462EF0A0F9002C99
:100DF00040F04381002D00F088809DF80030337072
:100E00000120854240F298819DF801303354013031
:100E1000022C40F25181032C40F25581042C40F207
:100E20005981052C40F25D81062C40F26081072C2F
:100E3000C9D88542C7D99DF8073033540130C2E77D
:100E400003F1010E74453FF67DAF03F1020C6445DA
:100E50009CD89FE740F20321089800F00FFE089805
:100E600000F040FE036800930746002C40F0158117
:100E7000002D00F053819DF8003033700120854231
:100E800040F25E819DF8013033540130022C40F273
:100E90003681032C40F23A81B7F804C0BCF1000F50
:100EA00091D0042300210CE08542C2F3072216D919
:100EB0003254B7F804C0013001318C4503F102030C
:100EC00081D9BA681A449C4203F1010E32F8042C0D
:100ED00003D88542F0D9325401307445E4D9B7F8CB
:100EE00004C0E9E71946089800F0C8FD089800F02A
:100EF000F9FD2246034629463046FEF70FFD62E71C
:100F00001A469149012001F069FA002003B0F0BDB2
:100F100044F20361089800F0B1FD089800F0E2FD8A
:100F20002246034629463046FEF714FE4BE760464C
:100F30006346BA6800929C4206D8854240F2F0802F
:100F40009DF800203254013001339C4206D885427E
:100F500040F2EA809DF801203254013001339C4276
:100F600006D885427FF62FAF9DF80220325401301B
:100F700001339C423FF627AF85427FF624AF9DF8B0
:100F80000330335401301EE71946089800F076FD0F
:100F9000089800F0A7FD2246034629463046FEF792
:100FA000A1FB10E743F60161089800F067FD08987F
:100FB00000F098FD426800920346002C68D1002D95
:100FC00078D09DF8002032700120854241D8022C53
:100FD00045D8854203D99DF80320325401301B685F
:100FE000009385427FF6EFAE9DF800303354013018
:100FF00085427FF6E8AE9DF80130335401308542DA
:101000007FF6E1AE9DF8023033540130B4E744F28C
:101010000461089800F032FD089800F063FD224654
:10102000034629463046FEF797FFCCE640F2011111
:10103000089800F023FD089800F054FD42680092E3
:10104000034604BBB5B39DF80020327001208542F1
:101050006FD99DF8012032540130022C23D9032C82
:10106000B7D91B680093042CBBD9052CC0D9062C1A
:10107000C5D9072C3FF6A7AE7EE7012C4FF0000044
:101080003FF6C6AEBDE6012C4FF00000E5D8DEE726
:10109000012C4FF00000E0D897E7012C4FF0000042
:1010A0003FF6F4AEEBE6854299D99DF80220325422
:1010B00001308EE7284692E785427FF684AE9DF8A0
:1010C00002303354013085427FF67DAE9DF8033007
:1010D0003354013085427FF676AE9DF804303354A8
:1010E0000130854203D99DF80530335401308542E3
:1010F0007FF669AE9DF806303354013099E685429B
:101100007FF6CAAE9DF802303354013085427FF637
:10111000C3AE9DF8033033540130BDE62846BBE62C
:1011200001339C423FF61AAF01339C427FF64BAE2F
:101130001EE7022C93D852E7022C3FF66CAEC9E7AB
:10114000022C3FF6A6AEA7E6BC080500B0F5E06F9E
:1011500010B41CD00F4B002204E00132422A03F1EC
:101160000C0310D033F8044C8442F6D11C688C4236
:10117000F3D1094B02EB420203EB82029368188819
:101180005DF8044B704700205DF8044B7047042065
:10119000F6E700BFF4120500F01205003420704796
:1011A0004D207047342070470149024800F0C6BA0C
:1011B0002C1F0500F4280020014800F0B7BA00BF3A
:1011C000F428002010B5064B036000230446037189
:1011D00081600273036100F021F9204610BD00BF59
:1011E0006C6B050010B5034B0360044600F036F944
:1011F000204610BD6C6B05004079704702230373D5
:1012000001207047A0F10800FFF7F8BF0323037324
:101210007047A0F10800FFF7F9BF70477047C26838
:101220008368406812F0010F4FEA620218BF8158CC
:10123000104418BFCB581847C2688368406812F042
:10124000010F4FEA620218BF8158104418BFCB58F3
:10125000184713B502AA4FF4847322F8023D012106
:10126000044600F0F3FCC8280BBF01200020012336
:101270000423237302B010BDA0F10800FFF7E9BFFB
:1012800013B502AA4FF4847322F8023D01210446EB
:1012900000F0F8FC0023237302B010BDA0F1080099
:1012A000FFF7EEBF10B503790446D80709D52068CB
:1012B00003689B689847A07118B9237923F002034B
:1012C00023712379990704D5206803681B6998471F
:1012D000A07123795A0705D5206803685B69984790
:1012E0000123A37123791B0705D520680368DB68F8
:1012F00098470123A3710123637123681B7B23B1EA
:101300000020BDE8104000F004BF10BD10B5044639
:1013100001F062F8204610BD2DE9F043394B1C68FE
:101320005368C7B006460F46904606ADC3B1138951
:101330000E2B02D813F0FF0F12D0052108F1080080
:1013400000F09CFB0222D8F80C1028462DF0EFFE8E
:101350002B88002C45D01BB1013B24699BB2F8E7D8
:1013600000231A4645F833200133202BFAD14FF0E1
:1013700000084FF04009ACB1B8F1200F12D0A068BE
:101380002DF0E5FF09308144B9F5EB7F0AD8A36859
:1013900045F8383005EBC80322791A71246908F141
:1013A0000108E8E74FF48672ADF810209DF812208E
:1013B000ADF8088042F0030202F0C3026FF3871217
:1013C000002C04AB02A98DF812204FF000028DF81A
:1013D00013200093039505910B4B14BF6422C82280
:1013E00008E00A4B93E80300074B85E803004FF43D
:1013F000D07200953946304600F0C6FC47B0BDE8D3
:10140000F08300BFFC2800200829002000290020CC
:1014100010B5044600F0E0FF204610BD036970B52A
:10142000054623B1012291210A4802F017FC0A4C1B
:1014300026685EB1A968B0682DF077FF20B9012257
:101440009921044802F00AFC3669F2E723682B610F
:10145000256070BDAC6B0500FC28002009490A68B6
:101460008242136903D10B6070471A461B6923B18E
:101470008342FAD11B69136170470122BC210248E3
:1014800002F0ECBBFC280020AC6B05000A78037965
:10149000032A1DD8DFE802F002080F1613F0FB0F35
:1014A0000CBF01200020704703F0FD02012A11D07B
:1014B000052B13D10EE0022B0ED0052B14BF0020FC
:1014C0000420704703F0FD02012A0DD10820704767
:1014D000FF207047022070470420704713F0FB0F75
:1014E00014BF002003207047022B04D0052B14BF2B
:1014F00000200C2070470C207047000070B58AB0A7
:101500000023087B01930D4600918DF8042000F024
:10151000DEFD0446064618B16846FFF7C3FE29E023
:10152000174B02930590174B287BCDF80CD002A9DE
:10153000049300F010FE0546F0B1214600F023FEB2
:10154000114B06932046114BCDF81CD008930994FB
:1015500000F0BDFD18B106A800F0C3FD07E006A825
:10156000FFF75DFE18B9022000F01DFFF7E72846DF
:1015700000F005FE9DF8066030460AB070BD00BF61
:10158000A06B0500A51202008C6B0500F91102008A
:1015900037B504460022114604F1080500F01CFB93
:1015A000002211492846FFF70DFE104B23604833F7
:1015B000A3600F4B1B689D4201D1A36923B1012297
:1015C0005A210C4802F04AFB02A9012301F8043D0C
:1015D0002846FFF75BFF294602462046FFF78EFFAD
:1015E000204603B030BD00BFC06B0500D86B0500BE
:1015F000FC280020AC6B0500134B37B50546036093
:10160000483345F8083F114B1B689D42044601D101
:10161000836923B1012264210D4802F01FFB02A956
:10162000032301F8043D2846FFF730FF2946024610
:101630002046FFF763FF2846FFF7D4FD204600F061
:10164000A5FA204603B030BDD86B0500FC28002069
:10165000AC6B0500A0F10800FFF7CEBF10B5044643
:10166000FFF7CAFF20462CF09FFD204610BDA0F1D9
:101670000800FFF7F3BF000038B5064B1C680D46A5
:1016800034B12946A0682DF050FE08B12469F7E76F
:10169000204638BDFC2800202DE9FF4102F1080456
:1016A0000546884620460C21174600F0E7F92046FB
:1016B00000F0EFF901462846FFF7DEFF02AC0646D0
:1016C000C8B1032107F1100000F0D8F901227969AF
:1016D00020462DF02CFD21463046FFF7D7FEFF288F
:1016E00002460BD0E0B131462846FFF707FFB8B9F4
:1016F0004FF4FA7204E04FF4CA7201E04FF4C8727A
:10170000084B93E8030042F4803284E80300064B60
:1017100000944146284600F037FB04B0BDE8F08154
:10172000C822EDE70029002008290020704710B5E5
:1017300004462CF039FD204610BD0000014A02602D
:1017400041607047406C0500406810B510B94FF417
:10175000C87010BD8207FAD102680A4B9A420ED1B6
:101760004168B1F1807FF2D28B07F0D184680C39E7
:101770000C3000F026FD8442E9D1C82010BD40F2B3
:10178000F91010BD574252304FF6FF73994208D0FE
:101790004268B2F854308B4203D9D3680B44D01856
:1017A0007047002070474FF6FF73994270B519D00B
:1017B0004268CEB2B2F8623009120131994211D2B8
:1017C000946A14444D0034F81130B3420AD92C44C1
:1017D000516A34F8023C33449BB2062000FB0310EC
:1017E000104470BD002070BD38B505460C462188F8
:1017F0002846FFF7D8FF28B10378012B02D1838850
:101800002380F4E738BD4368B3F86000884270B5C0
:1018100015D9986A00241844E5B26E1C013430F8DA
:101820001660B142F8D230F8150001EB0524201AF9
:1018300010805A6A062000FB0121581870BD002054
:1018400070BD4FF6FF7399420AD04368B3F8582031
:101850008A4205D95A69062000FB012158187047B1
:10186000002070474FF6FF73994209D04268B2F8E2
:101870005A308B4204D9936903EB4103D018704767
:10188000002070474FF6FF739A4217D04B68B3F8A9
:101890005C108A4205D2D96901EB4202134401224D
:1018A0000AE0521AB3F85E1092B2914206D9196A50
:1018B00001EBC20213440022027001E00023037016
:1018C000436070474FF6FF7399420AD04368B3F8FC
:1018D00064208A4205D9DA6A062000FB01215818E3
:1018E0007047002070474FF6FF73994209D0426855
:1018F000B2F866308B4204D9136B03EB4103D01866
:101900007047002070474FF6FF73994209D0426834
:10191000B2F868308B4204D9536B03EB8103D018C3
:101920007047002070474FF6FF73994209D0426814
:10193000B2F86A308B4204D9936B03EB4103D018A1
:101940007047002070474FF6FF7399420AD04368F2
:10195000B3F86C208A4205D9DA6B0C2000FB012118
:1019600058187047002070474FF6FF7399420AD00D
:101970004368B3F86E208A4205D91A6C0C2000FB2C
:1019800001215818704700207047FF2909D042688C
:10199000B2F870308B4204D9536C03EB4103D0187A
:1019A0007047002070474268D368B2F85400D118DD
:1019B000034413440020994206D011F8012B002A59
:1019C000F9D1013080B2F6E7704773B50B88038018
:1019D000837803F0E00343F0140303F0DF036FF3B5
:1019E0008713837004468878E0704B6863600B88C7
:1019F000DBB102AD002305F8013D8DF8063008F09B
:101A0000A7FC03681B699847036861681E680DF1AD
:101A100006022B46B047A3789DF8072062F3000327
:101A20009DF8062062F34103A370204602B070BD0A
:101A300038B50D46044650B1837843F0030303F0F4
:101A4000C3036FF3871383700023C37043602B7845
:101A500023800C2B02D1AB6863600AE003F0FD0326
:101A60000D2B04D101224E21034802F0F7F808356E
:101A70006560204638BD00BF486C0500704743686C
:101A800018787047436893F90000704743681878E6
:101A90007047406870474068704700000B880E2B05
:101AA00037B505460C460AD9A37803F00C03042B7E
:101AB0000BD0012296210A4802F0D0F805E001225D
:101AC0009221074802F0CAF8EEE763680093E278D3
:101AD0002188002328460FF00DFA284603B030BDB8
:101AE000486C050030B5837803F00C030C2B85B0EF
:101AF000044604D10122A621194802F0AFF8A378C8
:101B000003F00C03042B28D1E07808F021FC0546F3
:101B100008F0E0FE03AA21882C300AF0C7FDB0B11E
:101B20002B6828461B699847039A036800925D68F2
:101B3000218862680023A847606040B1A37803F061
:101B4000F20343F009036FF30413A37005E00122CD
:101B5000B321034802F082F8F0E7606805B030BDB9
:101B6000486C0500064A937843F00303002103F014
:101B7000C30361F3871311809370D1705160704774
:101B800000290020704770477047000010B5054BD2
:101B90000360044608F09EFE214608F043FF2046FD
:101BA00010BD00BF5C6C050010B50446FFF7EEFFEA
:101BB00020462CF0F9FA204610BD38B5038823F0F2
:101BC0000205C82D044605D0642B03D0CC2B01D0D0
:101BD0000AF0D4FA208838BD0E4B10B503600023FC
:101BE0000371437903F0F00362F3071343714FF677
:101BF000FF730446C38008F06DFE214608F0E2FE44
:101C0000C82804D001222921034802F027F82046E1
:101C100010BD00BF5C6C05008C6C0500004870476F
:101C20002F6E05004379C28800201B096FF3030063
:101C300063F307106FF30F2062F31F407047C088F3
:101C40007047C1807047407900097047F7B50D466D
:101C50001646074608F03EFE04463846FFF7E2FF08
:101C6000324603462946204609F0C6FB02AB5B22FA
:101C700023F8020D02491846FFF79FFF03B0F0BD9D
:101C80008C6C0500F0B585B00D461646074608F089
:101C900021FE04463846FFF7C5FF01230093324674
:101CA00003462946204609F019FB04AB602223F8BD
:101CB000020D03491846FFF780FF05B0F0BD00BFD5
:101CC0008C6C050073B50D46064608F003FE04460D
:101CD0003046FFF7A7FF2A460146204609F0D8FF05
:101CE00002AB652223F8020D02491846FFF765FF93
:101CF00002B070BD8C6C0500F7B50D461646074660
:101D000008F0E8FD04463846FFF78CFF33462A46C4
:101D10000146204609F0E0FF02AB6A2223F8020DDB
:101D200002491846FFF749FF03B0F0BD8C6C05006F
:101D300073B5044616460D4608F0CCFDE28863797B
:101D400000921B0932462946006A0AF09DFA02B049
:101D500070BD70B506460C46154608F0BBFDF3880D
:101D6000006A2A462146BDE870400AF0C9BA38B573
:101D70000D46044608F0AEFD2A46E188006ABDE83B
:101D800038400AF001BB00007FB514461E460D46E0
:101D9000FFF748FFE303039008D503A800F086F996
:101DA000037843F00103037024F4803408F092FDBB
:101DB000089B01932A46A3B2039900960AF02EF8D5
:101DC00004AB882223F8060D02491846FFF7F5FEFA
:101DD00004B070BD8C6C050007B5054B009340F254
:101DE000F512044BFFF7D0FF03B05DF804FB00BF12
:101DF000002900200829002007B5044B0093C822C1
:101E0000034BFFF7C1FF03B05DF804FB002900207E
:101E1000082900207FB51E460C461546FFF702FF35
:101E2000CB03039006D503A800F040F9037843F0F4
:101E30000103037008F04EFD089B0193A2B22B46EC
:101E4000039900960AF058F804AB942223F8060D83
:101E500002491846FFF7B1FE04B070BD8C6C050056
:101E600070B4566802F108030024B4420ED01D88F5
:101E70000E2D01D80D2D02D001340833F5E7072CC3
:101E800004D8026814691A46234601E00368DB6837
:101E900070BC1847014B00221A70704708290020B7
:101EA000704710B504462CF07FF9204610BD0000A5
:101EB000024B034A1A6000225A6070470C29002026
:101EC000AC6C050038B50A460C46002105462DF0DD
:101ED000CFF808B1401B38BD204638BD08460C225B
:101EE00000212DF048B910B501460446FFF7F6FF72
:101EF000204610BDF8B508460E4615462DF027FAC7
:101F0000033507463446A31B9F423ED90421204691
:101F1000FFF7D8FF431E032B28D8DFE803F01E107D
:101F20000702E3782F3B9B00DBB200E00023A1789F
:101F30002F3943EA21130901DBB2C9B201E00023C2
:101F4000194694F801E0AEF12F0E41EAAE014FEAD6
:101F50008E1EC9B25FFA8EFE02E0002319469E462D
:101F600022782F3A42EA0E02D2B202E0002319464A
:101F70001A46032805F8032C05F8021C05F8013C55
:101F800004F1040405F10305BDD8F8BDF0B5151D35
:101F900001F10C0691F801E00F7888784FEA8E0481
:101FA00004F03C04030144EA971417F03F0703F0E0
:101FB000300318BF2F3743EA1E13800805F8047C4E
:101FC00004B12F3405F8034C0BB12F33DBB205F805
:101FD000023C08B12F30C0B203318E4205F8010C2B
:101FE00005F10405D6D100231374F0BD0A4601465D
:101FF000FFF7CCBF70B50C4609B9002070BD08468C
:102000002DF0A5F9431E0F2BF7D8251814F8016BF6
:1020100030462CF0D8FF20B930462CF0DDFF0028E8
:10202000EBD0A542F2D1012070BD10B5037886B087
:10203000044643B1014601AAFFF7A8FF01A92046C3
:10204000FFF7D8FF00E0184606B010BD38B50446CB
:102050000D46FFF7EAFF38B10C22294620462DF045
:1020600057F8B0FA80F0400938BD38B504460D463F
:102070000146FFF733FF29462046FFF7BBFF30B18B
:10208000224629462046BDE83840FFF733BF38BD19
:1020900010B50446FFF7E9FF204610BD10B5044611
:1020A000FFF7E3FF204610BD7047704770470B46AF
:1020B00010B50146184608F0E2FD044630B100F0C4
:1020C00036F96469231A5842584110BD10BD10B545
:1020D000044608F0FFFB01462046BDE81040FFF72C
:1020E000E6BF38B5054608F0F5FB09F007FA0F28FA
:1020F000044601D1002038BD08F0ECFB214608F071
:10210000BEFD0028F6D029460C300CF073F80120F3
:1021100038BD10B5044608F0DDFB214608F0AFFDE0
:1021200040B1036980699B7801219940BDE8104066
:1021300000F08DB810BD38B505460C4608F0CAFB56
:10214000294608F09CFD28B121460C30BDE83840F6
:102150000CF0ECB838BD38B505460C4608F0BAFBB3
:10216000294608F08FFD21460C30BDE838400BF0C1
:10217000BDBF03689868431A5842584170470146EA
:1021800000680BF0DFBF0A46014600680BF0CABFCB
:1021900030B5082380221142044614BF01250025D2
:1021A00045EA4000002CBFBF80F0986080F48E307C
:1021B00080F4DB7080F00100013B4FEA6202EAD15B
:1021C00030BD38B5044645180020A54204D014F8A7
:1021D000011BFFF7DDFFF8E738BD000030B50C4DFF
:1021E0000A44914212D011F8013B83EA000404F042
:1021F0000F0455F8244084EA101080EA131303F00A
:102200000F0355F8233083EA1010EAE730BD00BF12
:10221000C46C050010B5002304460322194601F0E2
:10222000F5F8204610BD704707B502AA00208902C4
:102230004FF47A7342F8040DB1FBF3F34FF0FF3122
:1022400001F08AF800B1019803B05DF804FB0023A7
:10225000012201F0DBB800001FB504AA002342F8F8
:10226000043D0092012201F035F90849039A0B68F8
:1022700013430B603AB1064B4FF080521A60BFF324
:102280004F8FBFF36F8F05B05DF804FB142900205A
:1022900004ED00E02DE9F041064686B00C200F4623
:1022A0001546984600F096F80C9B0F4983606A1C0F
:1022B00005AB002580E84001AE4218BF31468DE8ED
:1022C0000C0004460346039502953A46074800F081
:1022D000A5FA012803D0204600F07EF80595059860
:1022E00006B0BDE8F08100BF2F6E05004523020057
:1022F00038B5044600F06AF80021204600F086FF59
:10230000C5B2012D04D102220021204600F072FF47
:1023100000F05EF8012D09D1012000F03FFD002101
:10232000204600F073FFC0B20228F4E738BD08B5BC
:1023300000F080FF012803D0BDE8084000F074BF22
:10234000002008BD38B54468856800F045F80021D4
:102350000846012200F04EFF2846A04700F036F85C
:1023600000210322084600F045FF00F031F8FFF796
:10237000DEFFBDE8384000F043BB10B5FFF7D7FFE4
:1023800001220446002100F035FF204610BD00F078
:10239000D3BB002108B5084600F038FFC0B2831E49
:1023A0005842584108BD80024FF47A73B0FBF3F0F5
:1023B00000F0F4BC044B4FF080521A60BFF34F8F13
:1023C000BFF36F8F704700BF04ED00E001F0BEB9AE
:1023D00001F0D6B901F006BC01F006BC0EB403B0A2
:1023E000704700000649074A074B9B1A03DD043B70
:1023F000C858D050FBDC00F04DF8FCF721FF00007E
:10240000ECBB050008260020C8280020FEE7FEE7F8
:10241000FEE7FEE7FEE7FEE7FEE7FEE7FEE7FEE794
:10242000094B1B78062B0CD1084B1B681A0708D1E7
:10243000074B186800F0F000A0F1300358425841F3
:1024400070470020704700BFE00F00F0E40F00F07D
:10245000E80F00F00C4B1B78062B10D10B4B1B68C0
:102460001A070CD10A4B186800F0F003302B08D083
:1024700000F0E000A0F140035842584170470020AE
:1024800070470120704700BFE00F00F0E40F00F03C
:10249000E80F00F008B5FFF7DDFF28B16C4B6D4A7F
:1024A0001B68C3F304231360FFF7BAFF10B16A4B34
:1024B0006A4A1A60FFF7CEFF28B1694B694A1B6868
:1024C000C3F342331360FFF7ABFF20B1664AD36812
:1024D00023F08073D360FFF7BDFF40B14FF080431E
:1024E0000022C3F80C21C3F81021C3F83825FFF7E8
:1024F00097FF10B15D4B03221A60FFF791FF40B1C7
:102500005B4B05221A6001229A6700229A603F22E3
:102510005A60584B1B78062B09D1574B1B681A077A
:1025200005D1564B1B6803F0F003502B47D0FFF743
:1025300091FF28B1524B534A1B6803F04F031360BD
:10254000514AD2F8883043F47003C2F88830BFF3A0
:102550004F8FBFF36F8F4FF01023D3F80C32DB0790
:1025600029D54A4B0122C3F80425D3F80024002AB8
:10257000FBD04FF010224549D2F80C3223F0010372
:10258000C2F80C32D1F80024404B002AFAD00022C5
:10259000C3F80425D3F80024002AFBD0BFF34F8FE3
:1025A00039493B4BCA6802F4E0621343CB60BFF386
:1025B0004F8F00BFFDE7374B374A1A6008BD4FF019
:1025C0008052364BD2F80414C3F82015D2F8081400
:1025D000C3F82415D2F80C14C3F82815D2F8101437
:1025E000C3F82C15D2F81414C3F83015D2F8181407
:1025F000C3F83415D2F81C14C3F84015D2F82014CF
:10260000C3F84415D2F82414C3F84815D2F8281496
:10261000C3F84C15D2F82C14C3F85015D2F8301466
:10262000C3F85415D2F83414C3F86015D2F838142E
:10263000C3F86415D2F83C14C3F86815D2F84014F6
:10264000C3F86C15D2F84424C3F870256FE700BFB7
:10265000240300104035014074C007400DF0ADBAAE
:10266000440200103C050040F0ED00E0A0050040F1
:1026700010560040E00F00F0E40F00F0E80F00F00B
:1026800058020010E40E004000ED00E000E00140C0
:102690000400FA05102600200090D00300C000407E
:1026A000094B1EF0040F1CBFEFF309801847EFF32E
:1026B00008800649064A884201D8904202D88D46D1
:1026C0004FF00000184700BF6533030080FF002073
:1026D00080FB0020074B1B68D86A48B9064B1B6873
:1026E000012B06D8054A064B1B681068181A70475C
:1026F00000207047B829002050290020C42900205C
:10270000BC290020064A13681968064B11B94FF01E
:10271000FF3203E01268D268D26852681A607047CC
:102720002C290020BC2900200E4B1A6810B55060DF
:102730000D4A12689042044607D20C4A1068196884
:10274000BDE81040043100F051BF094A1068196813
:10275000043100F04BFF074B1A68944238BF1C60ED
:1027600010BD00BFB8290020C4290020C8290020BE
:102770002C290020BC2900202DE9F0470C68002CF2
:1027800049D04B685C684C6001F10807BC4204BF4B
:102790007B684B604B68D3F80CE000F11C03002011
:1027A0004FF0020C05464C6864684C60A74204BFB9
:1027B000CC684C604C68E46843F81C4C04F1340667
:1027C00043F8186C266C43F8146CE66A03F8102C76
:1027D000032A43F80C6C03D1A66A0EB103F810CC9F
:1027E000666CD4F8309043F8086C43F8045CC84633
:1027F000C9EB080618F801ABBAF1A50FF8D0B60876
:10280000A6451E805D609D6000F1010003F1280374
:10281000C9D1BDE8F0872046BDE8F0872DE9F84F23
:102820000A9E0C9C0F4615469A46814620B940F2F6
:102830003521644812F0A1FB042E04D940F2362160
:10284000604812F09AFB3CB9A80001F0EFF883460B
:10285000002800F0B38000E0A346582001F0E6F81D
:10286000044688B1AD002A46C0F830B0A5215846CC
:102870002CF081FC236B043D1D4425F007057B1ED5
:1028800004F13302093705E0584601F065F995E097
:10289000BB4206D013F8011F02F8011F1978002966
:1028A000F6D1042E4FF0000BB04604F1040728BF08
:1028B0004FF00408384684F83DB0C4F82C80C4F8C2
:1028C0004480C4F848B000F082FE04F1180000F023
:1028D0007EFEC8F10503A361C4F850B024616462B0
:1028E000C4F84CB084F854B052464946284600F02B
:1028F000B7FE0B9B206003B11C6000F027FF324A3B
:10290000324D1368DFF8EC90013313602B683BBB4A
:102910002C601268012A2BD1984609EB080008F1B7
:10292000140800F049FEB8F1640FF6D1DFF8C8A032
:10293000DFF8C880504600F03FFE404600F03CFE05
:10294000234800F039FE234800F036FE224800F00C
:1029500033FE224BC3F800A0214BC3F8008007E0F0
:10296000204B1B6823B92B68DB6A9E4228BF2C6072
:102970001D4A1368013313601C4A23641168E36A1B
:1029800014208B4200FB0390394688BF136000F08F
:1029900021FE00F0F5FE134B1B6863B12B68DB6A68
:1029A0009E4208D9124B4FF080525A6040BFBFF38D
:1029B0004F8FBFF36F8F0120BDE8F88F4FF0FF30CE
:1029C000BDE8F88F046D0500E4290020B829002037
:1029D000CC29002018290020002A00202C290020C2
:1029E000C829002030290020E0290020142A0020D6
:1029F00000ED00E05029002038290020E8290020BF
:102A000038B5044600F0A2FE0CB91E4B1C68251D0B
:102A1000284600F003FEA36A1BB104F1180000F081
:102A2000FDFD2946184800F0D5FD184A136801330A
:102A30001360174A13680133136000F0A1FE154BB1
:102A40001B68EBB10F4B1B689C4211D1124B1B68EA
:102A500023B140F22631114812F08FFA104B4FF09B
:102A600080525A6040BFBFF34F8FBFF36F8F38BDA6
:102A700000F06CFEFFF746FEBDE8384000F080BE77
:102A800038BD00BFB82900201829002034290020B3
:102A9000E029002030290020C0290020046D050015
:102AA00000ED00E01FB50024154B01930394029440
:102AB00000942346642213491348FFF7AFFE012810
:102AC00013D11AF08BF901280FD1202383F3118839
:102AD0000E4B4FF0FF321A600D4B18600D4B1C600F
:102AE00004B0BDE8104000F0CDBD38B90A4840F24E
:102AF000596104B0BDE8104012F03FBA04B010BDF7
:102B0000FC290020476D0500012E0200BC29002091
:102B100030290020C4290020046D0500024A1368F2
:102B200001331360704700BFC0290020014B1868B3
:102B3000704700BFC429002010B5044638B9054BC2
:102B40001C6824B940F24A71034812F016FA04F1E5
:102B5000340010BDB8290020046D050038B5084CBC
:102B6000084A2368126803449342054604D940F298
:102B7000B371054812F001FA20682844206038BD7E
:102B8000C4290020BC290020046D05003D4B1B68B2
:102B90002DE9F74F002B3ED13B4B1A6801321A60EA
:102BA0001D689DB9394C23681B6823B140F2D2716E
:102BB000374812F0E2F9374B2268196821601A6031
:102BC000354A136801331360FFF79CFD334C0194C1
:102BD0002368334E334F9D424FF0000B11D3DFF883
:102BE000AC80DFF8CC90D8F800201268002A39D0E9
:102BF000D8F80020D268D46861688D4212D2019B57
:102C000019603A68D16A14224A43B258022A28BF8E
:102C10004FF0010B2BE0244A1368013313604FF08F
:102C2000000B24E004F1040A504600F0F7FCA16A0E
:102C300019B104F1180000F0F1FCE06AD9F80010B5
:102C40001423884288BFC9F80000514603FB006086
:102C500000F0C0FC3868E16AC26A914228BF4FF0B8
:102C6000010BC0E7019B4FF0FF321A60C9E70F4A22
:102C70001268002A18BF4FF0010B584603B0BDE898
:102C8000F08F00BFC0290020C42900202C2900207B
:102C9000046D0500C8290020B4290020BC290020AB
:102CA00050290020B82900204C290020182A002093
:102CB000142A00202DE9F0412E4C236823B940F25C
:102CC00096612D4812F059F900F040FD2368013B50
:102CD000236023680BB1002446E0284B1B68002BBF
:102CE000F9D0274D274EDFF8B0802B68F3B1EB68A1
:102CF000DC68271D04F1180000F090FC384600F055
:102D00008DFCE36A32681420934200FB038039464D
:102D100088BF336000F05EFC1B4BE26A1B68DB6A15
:102D20009A42E2D3194B01221A60DCE7184C23685F
:102D30006BB9164B1C68012CCDD1164B4FF080524D
:102D40005A6040BFBFF34F8FBFF36F8F0CE00F4D42
:102D500001262368002BECD0FFF718FF00B12E608E
:102D60002368013B2360F4E700F00AFD2046BDE83C
:102D7000F08100BFC0290020046D0500E429002077
:102D8000CC290020142A0020B8290020182A00206D
:102D90004C29002000ED00E05029002010B5044629
:102DA00048B9124B4FF080525A6040BFBFF34F8F6B
:102DB000BFF36F8F10BD0E4B1B6823B140F2AB31D8
:102DC0000C4812F0DAF8FFF7A9FE0B4B1B681C4405
:102DD0000A4B1868043000F021FC2046FFF7A4FCE1
:102DE000FFF768FF0028DCD010BD00BF00ED00E059
:102DF000C0290020046D0500C4290020B829002046
:102E0000F8B5204D2E46204F2B68F3B1FFF786FE14
:102E10003C68FFF74FFF002CF6D000F097FC1A4BF0
:102E2000DB68DC68201D00F0F9FB184A1368013BE1
:102E300013603368013B336000F0A2FC206B00F0AC
:102E40008BFE204600F088FEDEE710F093F9FFF7D6
:102E500041FC0128D7D9FFF761FE0D4B1A680D4BD5
:102E60001B689A4204D24FF430610B4812F085F887
:102E7000FFF730FC012801D900F020FDFFF71AFF11
:102E8000C1E700BF3429002018290020E4290020D0
:102E9000BC290020C4290020046D05002DE9F0475D
:102EA00005461746FFF73AFE204B1B688B4236D883
:102EB0000026DFF88CA034464FF0280906F15001B7
:102EC00009FB045001225144FFF756FC143E16F151
:102ED000640F4FF028080444F0D1154B0222196802
:102EE00008FB0450FFF748FC124B04441968022207
:102EF00008FB0450FFF740FC044404220E4908FB81
:102F00000450FFF739FC044408FB045003220B492A
:102F1000FFF732FC04441FB100233B6000E00024B3
:102F2000FFF7C8FE2046BDE8F08700BFE429002077
:102F30002C290020C829002018290020002A002060
:102F400050290020F8B5244B1A68244B12B10122F5
:102F50001A60F8BD224C1A6023681B6B1A68B2F124
:102F6000A53F0BD15A68B2F1A53F07D19A68B2F1DB
:102F7000A53F03D1DB68B3F1A53F04D020682168E9
:102F8000343111F0FFFF174D174F2E462A681649AE
:102F900014235A43BA5852B92B6823B940F6F901A1
:102FA000124811F0EAFF3368013B3360EEE70D4A47
:102FB00012685343C818083345686D6845600B4470
:102FC0009D4204BF6B684360142303FB02125368E5
:102FD000DB682360F8BD00BFC0290020182A00204C
:102FE000B8290020142A002050290020046D050073
:102FF00070B50D46064620B940F60B110E4811F08B
:10300000BCFF0E4C21683046183100F0EFFA206802
:10301000043000F003FB6B1C06D121680848043122
:10302000BDE8704000F0D6BA064B18682844BDE8E9
:103030007040FFF779BB00BF046D0500B829002080
:10304000002A0020C4290020F8B50E461746054680
:1030500020B940F68A110E4811F08FFF0D4C2168FF
:103060002846183100F0B6FA2068043000F0D6FA8D
:10307000012F06D1216808480431BDE8F84000F06E
:10308000A9BA064B18683044BDE8F840FFF74CBBBE
:10309000046D0500B8290020002A0020C429002062
:1030A00038B5C368DC6824B940F6E511154811F05D
:1030B00064FF04F11805284600F0B0FA124B1B68B3
:1030C0007BB9251D284600F0A9FA104AE36A116869
:1030D0008B4288BF13600E4A1420294600FB032050
:1030E00001E00C48294600F075FA0B4BE26A1B68B8
:1030F000DB6A9A4285BF094B012000201860FFF768
:1031000001FB38BD046D0500C0290020142A0020F1
:1031100050290020CC290020B8290020182A00209E
:1031200010B5044620B940F64521054811F025FFA9
:10313000044B1B682360044B1B68636010BD00BF19
:10314000046D0500B4290020C429002038B50D46BF
:10315000044620B940F64F21134811F00EFF25B95F
:103160004FF42561104811F008FF00F0EFFA0F4B03
:1031700019682B685A1C10D00D4A206812689042BA
:10318000626801D091420AD2881A834207D9521A42
:1031900013442B602046FFF7C3FF002400E0012406
:1031A00000F0EEFA204638BD046D0500C429002069
:1031B000B4290020014B01221A607047182A002010
:1031C000084B186860B9084B1B6853B9074B18685F
:1031D000074B1B680138834214BF0120022070474F
:1031E00000207047CC290020182A0020E429002064
:1031F000002A0020002905DC08B9034B186800EB01
:103200008100C264704700BFB8290020002906DC95
:1032100008B9044B186800EB8100C06C70470020AF
:10322000704700BFB8290020014B1868704700BFE5
:10323000B8290020054B1B6833B1054B1B68002BD8
:103240000CBF022000207047012070473029002069
:10325000C0290020F8B5044600282CD0164DC36ABA
:103260002A68D26A934226D28269002AA1BF2A68BC
:10327000D26AC2F1050282611048142202FB0303E4
:1032800062699A42064613D1271D384600F0C6F9F6
:103290002B680B4ADB6A1168E3628B4200D913602A
:1032A0001420394600FB0360BDE8F84000F092B9F5
:1032B0002B68DB6AE362F8BDB829002050290020A2
:1032C000142A002038B5044608B9002038BD184B30
:1032D0001B68984204D040F6EF51164811F04DFE9D
:1032E000A36C23B940F6F151124811F046FEA36CCD
:1032F000E16A626C013B9142A364E6D0002BE4D109
:10330000251D284600F08AF9636CE362C3F10502CB
:10331000A261094A11688B4288BF1360074A1420D2
:1033200000FB0320294600F055F9012038BD00BFFD
:10333000B8290020046D0500142A0020502900201F
:10334000044B1A681AB119688A6C01328A641868C9
:10335000704700BFB82900202DE9F041274C1D46D9
:1033600080460F46164600F0F1F9236893F8543072
:10337000022B23D02268136D23EA0800106523680E
:10338000012283F85420CDB12068043000F046F9C2
:103390006B1C05D121681A48043100F01BF904E0C8
:1033A000184B18682844FFF7BFF9174B4FF08052AD
:1033B0005A6040BFBFF34F8FBFF36F8F00F0E0F94B
:1033C00000F0C4F916B123681B6D3360236893F8CD
:1033D0005430012B1FBF094B1B68196DB94318BF2F
:1033E000196523684FF0000214BF0125002583F8FA
:1033F000542000F0C5F92846BDE8F081B829002026
:10340000002A0020C429002000ED00E0F8B50E4697
:1034100015461F46044620B941F27901284811F0AB
:10342000ACFD00F093F90FB1236D3B6094F854307C
:10343000022284F854206A1EDBB2032A0DD8DFE88A
:1034400002F002050B09226D164305E0226D0132E0
:10345000226502E0022B2DD02665012B28D1251DE7
:10346000284600F0DBF8174AE36A11688B4288BFF0
:103470001360154A142000FB0320294600F0AAF827
:10348000A36A23B141F2B1010D4811F076FDFFF7B7
:1034900039F90E4BE26A1B68DB6A9A4208D90C4B79
:1034A0004FF080525A6040BFBFF34F8FBFF36F8F12
:1034B000012400E0002400F063F92046F8BD00BFBD
:1034C000046D0500142A002050290020B82900208E
:1034D00000ED00E02DE9F843089F8846154699461F
:1034E000044620B941F2E4012D4811F046FD00F0F8
:1034F0005BF9EFF31186202383F31188B9F1000FF4
:1035000002D0236DC9F8003094F85430022284F8B8
:1035100054206A1EDBB2032A0FD8DFE802F002064D
:103520000C0A226D42EA080201E0226D0132226596
:1035300003E0022B2FD0C4F85080012B01D00120D2
:103540002AE0A36A23B141F22B11154811F015FDB1
:10355000144B1B687BB9251D284600F05FF8124A02
:10356000E36A11688B4288BF1360104A1420294611
:1035700000FB032002E00E4804F1180100F02AF8D5
:103580000C4BE26A1B68DB6A9A42D8D9002FD6D06E
:103590000120386000E0002086F31188BDE8F88340
:1035A000046D0500C0290020142A002050290020A5
:1035B000CC290020B829002000F1080343604FF017
:1035C000FF32C36003610023826003607047002301
:1035D0000361704743684B609A688A609A685160DB
:1035E0009960036808610133036070470A68531CDF
:1035F00030B501D1036907E000F108035C68256874
:10360000AA4201D32346F9E75A684A6091608B6069
:103610005960036808610133036030BD4168826806
:1036200003698A60826851605968884208BF5A609D
:1036300000220261186801381860704708B5064B0F
:103640001B68013303D0C721044811F096FC2023E6
:1036500083F31188FEE700BF242A00204C6D05008B
:103660004FF0807300E90A00054B40F80C3C6FF006
:10367000020340F8202C40F8243C4438704700BF37
:103680003D360200294B1A68294B9A4213B503D0E4
:10369000D921284811F071FC274B1A78D2B2019237
:1036A000FF221A701B78254ADBB28DF803309DF893
:1036B000033003F001031370214B07221A6000212D
:1036C0009DF80300000602F1FF3408D59DF80320A1
:1036D0005200D2B28DF8032001212246F0E701B159
:1036E0001A601A68114C02F007021A60019B124A14
:1036F000DBB21370E02384F8223000F0BFF8114BE6
:1037000000221A60D4F888300F4A43F47003C4F8DA
:103710008830536843F040435360236943F01003FB
:10372000236119F0BDFAFFF789FF00BF00ED00E04B
:1037300041C20F414C6D050000E400E01C2A00204E
:10374000202A0020242A002030EF00E0202383F3E9
:103750001188084A13680133012B136009D1064B05
:103760005B68C3F3080323B14FF49D71034811F064
:1037700004BC7047242A002000ED00E04C6D0500D9
:1037800010B5074C236823B940F24111054811F0E8
:10379000F4FB2368013B23600BB983F3118810BD50
:1037A000242A00204C6D050008B5EFF30583C3F310
:1037B00008030F2B0DD903F1E023F0330D4A93F8E2
:1037C000003312789A4204D940F27B110A4811F072
:1037D000D4FB0A4B0A4ADB681268C3F302239A42FD
:1037E00006D240F28B110448BDE8084011F0C5BB79
:1037F00008BD00BF1C2A00204C6D050000ED00E054
:10380000202A00203EDF704773B5194B00221A6052
:103810001B680193019BEFF31186202383F311882A
:10382000144BD3F80445C3F8002103F580731B68DB
:103830000093009BFFF77AF9201A20F07F44012CB7
:1038400004D9FFF7F7FC022818BF0124002514F162
:10385000FF3403D3FFF79AF90543F8E725B1064B88
:103860004FF080525A6040BF86F3118802B070BD9D
:10387000401101400010014000ED00E008B50020BB
:1038800011F040FD0A4B0B491F22C3F80825012205
:10389000C3F804230A601A600222C3F84423064BCB
:1038A000E02283F811234FF400321A6008BD00BFF4
:1038B000001001400810014000E100E02DE9FF4147
:1038C0000546EFF3108172B63F4EB3688BB9012302
:1038D000B3603E4B3E4AD3F88000024032603C4A1F
:1038E000C3F88020D3F8842072604FF0FF32C3F811
:1038F000842001B962B6374CD4F80485FFF760FC28
:1039000000284ED03448854228BF054608EB050301
:1039100023F07F430122C4F80823C4F840352F4B1D
:1039200000221A601A680192019A4FF48032C4F89A
:103930000423BFF34F8F1F468DB111F045FE08B928
:10394000224B05E0FFF75EFF48B113F07BFC06E079
:1039500020BFD3F80011D3F804210A43F8D0002285
:103960004FF48033C4F808333A603B680393039BF9
:103970001B4B1A601B680293029B0123C4F804339B
:10398000D4F80405114BC8EB000020F07F40A8429A
:103990004FF4003228BF2846C3F8802108B1FFF752
:1039A000DDF8B368084A5BB1EFF3108372B60749DC
:1039B00010680860506848600021916003B962B6E1
:1039C00004B0BDE8F08100BFB0E7002000E100E0F6
:1039D000FC06FFBD00100140FDFFFF00401101404B
:1039E0000011014010B50F4B1A68824201D21346F4
:1039F000FAE759685C18A04201BF406809181846E8
:103A0000596041684418A24207D1074C2468A24279
:103A10001FBF54681268091941609842026018BFBC
:103A2000186010BD302A00202C2A00202DE9F84310
:103A30000446FFF773F84049404D0B68FBB9404A14
:103A4000404E50071FBF07323F4B22F007029B1A20
:103A500008BF4BF280031344083B23F00703002008
:103A600070603260586018600B60981A1360374BB2
:103A700050601860364B18604FF000432B602B6885
:103A80001C4249D1002C45D0083462071CBF24F0E9
:103A900007040834002C3DD02D4B1A6894429846F8
:103AA0003AD8284B1E687268944203D809688E423F
:103AB00006D131E030680028F8D033460646F2E7F8
:103AC0001F6831681960121B102A07F1080710D906
:103AD00006EB040919F0070F03D0FC211D4811F073
:103AE0004CFA73681B1BC9F8043048467460FFF732
:103AF00079FF16497268D8F8003008689B1A83422B
:103B0000C8F8003038BF0B602B681A43002372607E
:103B1000336002E0274600E00027FFF7CBF80FB93B
:103B200011F034FA7B0704D04FF49E71094811F06C
:103B300024FA3846BDE8F8832C2A0020B8DA0020A1
:103B4000382A0020302A0020B8DA0020BCDA002011
:103B5000282A0020B46D050038B5044678B3184B08
:103B600050F8041C1A6811421D4604D14FF4A87184
:103B7000144811F002FA54F8083C23B140F25111F4
:103B8000104811F0FAF954F8043C2A68134216D090
:103B900054F8081C99B923EA020344F8043CFEF7E0
:103BA000BDFF094A54F8041C1368A4F108000B4433
:103BB0001360FFF717FFBDE83840FFF77BB838BD4B
:103BC000B8DA0020B46D0500282A0020014B1868DF
:103BD000704700BF282A0020014B1868704700BFBB
:103BE000BCDA0020FFF722BF08B1FFF7B5BF70476E
:103BF0000846FFF71BBF0846FFF7F6BF08B50122CE
:103C00004121024800F02AF8002008BD096E050095
:103C100000BE0FF011BD000013B50A4C002818BFFC
:103C2000044602A8002340F8043D0FF067FC019A07
:103C300021462BF0BAFB03200FF068FCFFF7E8FFEA
:103C400002B010BD146E050008B50A4601460220F8
:103C50000FF088FCBDE80840FFF7DABF08B50A4658
:103C6000014601200FF07EFCBDE80840FFF7D0BF01
:103C700008B502460B4600200249FEF7AFFB0020C4
:103C800008BD00BF1C6E0500002303737047A0F140
:103C90000800FFF7F9BF0223037301207047A0F16A
:103CA0000800FFF7F8BF032303737047A0F1080073
:103CB000FFF7F9BF10B5074B03F108025033044674
:103CC000026040F8083FFDF78DFA2046FDF75EFFE1
:103CD000204610BDF06E0500A0F10800FFF7EABF16
:103CE00010B50446FFF7E6FF20462AF05DFA2046AD
:103CF00010BDA0F10800FFF7F3BF000010B5054AA2
:103D000001210446FDF7A2FFC82806BF0120207349
:103D1000002010BDEE6E0500A0F10800FFF7EEBF19
:103D2000F0B5CA8840F60153A1B09A4206460D4646
:103D30000AAF40F0CD8000238DF81C30ADF8203064
:103D400009931A4647F8332001330B2BFAD1684BFD
:103D5000684C1B680493684B1B680593674B1B6892
:103D6000069334B1FBF7D6FA654B0A938DF82C0015
:103D70000124644B53B1FBF7CFFA20AB03EBC40330
:103D8000614A43F8582C03F8540C01345F4B53B18B
:103D9000FBF7C4FA20AB03EBC4035D4A43F8582C8D
:103DA00003F8540C01345B4B53B1FBF7B9FA20AB69
:103DB00003EBC403584A43F8582C03F8540C01345D
:103DC000564B53B1FBF7AEFA20AB03EBC403544A96
:103DD00043F8582C03F8540C0134524B53B1FBF701
:103DE000A3FA20AB03EBC4034F4A43F8582C03F863
:103DF000540C01344D4B53B1FBF798FA20AB03EB55
:103E0000C4034B4A43F8582C03F8540C0134494B73
:103E100053B1FBF78DFA20AB03EBC403464A43F8DA
:103E2000582C03F8540C0134444B53B1FBF782FA7D
:103E300020AB03EBC403424A43F8582C03F8540C5C
:103E40000134404B53B1FBF777FA20AB03EBC403CB
:103E50003D4A43F8582C03F8540C01343B4B53B102
:103E6000FBF76CFA20AB03EBC403394A43F8582C38
:103E700003F8540C0134374B63B10B2C0AD0FBF719
:103E80005FFA20AB03EBC403334A43F8582C03F822
:103E9000540C013401238DF81C3040F60253ADF868
:103EA00008309DF80A30ADF8204043F0030303F0DA
:103EB000C3036FF387138DF80A3000238DF80B309E
:103EC00004AB039302AB00930997244BC82208E08C
:103ED000234B93E80300214B87E803004FF4C8729B
:103EE000009729463046FDF74FFF21B0F0BD00BFD7
:103EF0001826002015F301001C260020142600209F
:103F0000346E050019F301003F6E05001DF301003A
:103F1000476E050021F30100526E050025F30100F4
:103F2000646E050029F301006F6E05002DF301009A
:103F30007D6E050031F301008B6E050035F3010045
:103F40009F6E050039F30100AC6E05003DF30100E2
:103F5000BB6E050041F30100C96E05000829002071
:103F60000029002010B5012204460021FDF734FE8F
:103F70000122064904F10800FDF724F9044B03F17E
:103F8000080250332260A360204610BDDB6E05009E
:103F9000F06E05007047704700200FF09BB810B519
:103FA00004462AF001F9204610BD000070B50569ED
:103FB0000446FEF7BCF901462846FEF7DAF828B9B0
:103FC00001224FF481710948FFF748FEE2686068FA
:103FD000A36812F0010F4FEA6202BDE8704018BFFB
:103FE0008158104418BFCB58184700BFEC6F05002C
:103FF00010B50446FEF7F0F9204610BD10B5064B8B
:10400000044640F8343B04F07FFC04F1180004F04F
:104010007BFC204610BD00BF806F050010B5044634
:10402000FFF7ECFF20462AF0BFF8204610BD80F8CD
:10403000601B0021D0F85C0BFEF7A5B8A0F10C00C6
:10404000FFF7F5BF0B4A1368DB0711D40A490B4B86
:10405000096819600A49096859600A49096899603C
:1040600009490968D9600949096819610123136080
:1040700002487047C0DA0020889A0500C4DA0020A0
:104080001C9405003C94050008920500B8970500B3
:104090007FB590F8603BABB19DF814300B4903F04D
:1040A000FE0343F00203002203F0F30362F307135D
:1040B0008DF81430064B039204920093802203ABD8
:1040C0000DF094F907B05DF804FB00BF1F0001324A
:1040D0000C29002038B5084B03600446406848B1FD
:1040E0004568FEF74CF8002363601DB12B68284635
:1040F0005B689847204638BD706F050010B50446D0
:10410000FFF7E8FF20462AF04FF8204610BD0000D8
:10411000002270B5114604460DF05AF83D4B23605D
:104120004433E36004F1100005F0ECFD04F11800E5
:1041300006F02EF8012104F1300019F0A7FD00214E
:1041400004F1C80019F0F4FF04F1E00016F070FF6C
:1041500004F54D7014F012F904F5567014F0FCFBE0
:1041600004F57E70002613F0AFFA04F5906015F0A8
:1041700029FC314684F8A06504F5B5601AF03CF9D5
:10418000254B264AC4F8BC3504F2BC5104F2EC506D
:1041900000F07EFD04F68C201DF092F904F52B60F2
:1041A00002F03CF904F52E6000F0D6FC04F608306D
:1041B000FFF7D8FE04F624301DF00CF84FF6FF731D
:1041C000A4F8423B84F8406B04F6443005F0A2FFAB
:1041D000134BC4F8583B1420FEF7FCF8114BC66093
:1041E00080E81800104B83600546066101463046A2
:1041F000FDF7B1FFC4F85C0B286120B90122D7217B
:104200000A48FFF72BFD2A6900231372204684F821
:10421000603B70BDA46F0500CC750500993F02009E
:10422000706F0500906F050091400200EC6F050073
:1042300070B5614B614D624C86B00646DBB1FBF751
:1042400069F8C0B17820FFF7CDFC5E4A2368126898
:1042500045F8232028B106F2EC5206F2BC5104F0D6
:1042600023F9236801330B2B236004D90122B021E9
:104270005548FFF7F3FC554BEBB1FBF74DF8D0B1C8
:104280007820FFF7AFFC524A2368126845F82320D4
:1042900038B106F2EC5306F2BC5206F52B6102F07F
:1042A00097F9236801330B2B236004D90122B32132
:1042B0004548FFF7D3FC474B5BB92020FFF792FC42
:1042C000454A2368126845F8232030B102F0C6FF42
:1042D00003E0FBF723F850B1EFE7236801330B2B22
:1042E000236004D90122B6213748FFF7B7FC3B4BC6
:1042F0005BB92C20FFF776FC394A2368126845F831
:10430000232030B103F0AEF803E0FBF709F850B119
:10431000EFE7236801330B2B236004D90122B92175
:104320002948FFF79BFC2F4B5BB95020FFF75AFC45
:104330002D4A2368126845F8232030B11BF08EFE09
:1043400003E0FAF7EFFF50B1EFE7236801330B2BDF
:10435000236004D90122BC211B48FFF77FFC234BBB
:10436000BBB1FAF7E1FFA0B11C20FFF73BFC204AEC
:104370002368126845F8232008B103F0D1FD2368B3
:1043800001330B2B236004D90122BF210E48FFF714
:1043900065FC184B5BB91C20FFF724FC164A236808
:1043A000126845F8232048B300F054FF26E0AFF32D
:1043B000008068B3EFE700BF15F30100ECDA0020DE
:1043C00040DB0020AC770500EC6F050019F301001D
:1043D0004C7305001DF301003074050021F301004A
:1043E0006475050025F3010068A4050029F30100A8
:1043F000DC76050000000000C4720500236801336C
:104400000B2B236004D90122C2214848FFF726FC68
:10441000474BBBB1FAF78AFFA0B11420FFF7E2FBCC
:10442000444A2368126845F8232008B105F00EFFBE
:10443000236801330B2B236004D90122C5213B489B
:10444000FFF70CFC3C4BBBB1FAF772FFA0B1202088
:10445000FFF7C8FB394A2368126845F8232008B1E2
:104460001CF0F4FA236801330B2B236004D90122DA
:10447000C8212E48FFF7F2FB022301935023029339
:1044800000238DF80C3004934FF4807305932C4B6C
:104490001BB102A901A8FAF755FF2A4B23B105AABF
:1044A00004A903A8FAF754FF274BC3B1FAF742FF58
:1044B000A8B14C20FFF796FB244A2368126845F800
:1044C000232010B101A91CF07BFC236801330B2BC6
:1044D000236004D90122D4211448FFF7BFFB1C4BF1
:1044E000BBB1FAF72DFFA0B1E820FFF77BFB194A1B
:1044F0002368126845F8232008B11AF02BFE2368C0
:1045000001330B2B236004D90122D7210748FFF781
:10451000A5FB23681049002006AA45F823000123C3
:1045200002F8183D05F004FC06B070BDEC6F050004
:104530002DF30100B479050031F3010038A5050021
:1045400045F3010051F3010035F30100FCA505001E
:1045500041F30100A0A30500ECDA0020F0B5334BD5
:104560001B6889B0044603B1984708AE012506F8D8
:10457000105D2F493246002005F0DAFBFFF762FD9F
:104580003246014600208DF8105005F0D1FB32462E
:1045900028498DF81050002005F0CAFB2046FFF78F
:1045A00047FE254B1B7803F0100303F0FF026BB9A5
:1045B000B4F8421B4FF6FF73994234D142F21071A6
:1045C00020460CF083FFA4F8420B2CE01B4B049315
:1045D0009DF81A3084F8405B43F00303002703F092
:1045E000C30367F387138DF81A300DF10F03079398
:1045F0001349144B00962A4620468DF80F700595F6
:10460000ADF818508DF81B700CF0F0FE0E4B1968C9
:1046100029B1324638468DF8105005F089FB0B4B16
:104620001B680C341C6009B0F0BD00BF1CDB00200F
:10463000DCDA002020DB002080E10020606F050034
:104640001F000039CCDF002008260020C8E1002030
:1046500013B50446FFF782FF044B00930422044B7A
:10466000044920460CF0C2FE02B010BD0C29002007
:10467000CCDF00201F00000A274B1B6837B5002441
:104680001C6090F8403B8BB1244D296871B1022326
:1046900001AA20468DF8043005F04AFB032329685F
:1046A0008DF8043001AA204605F042FB022501AA3C
:1046B0001B498DF80450002005F03AFB032401AAA1
:1046C00017498DF80440002005F032FB01AA154976
:1046D0008DF80450002005F02BFB01AA11498DF83C
:1046E0000440002005F024FBFFF7ACFC01AA0146C2
:1046F00000208DF8045005F01BFBFFF7A3FC01AA76
:10470000014600208DF8044005F012FB642010F0F3
:104710001BFB03B030BD00BFC8E10020082600200D
:10472000ECDA002020DB0020084B994237B5054623
:104730000C4609D1FFF7A0FF054B00930522054B5E
:10474000214628460CF052FE03B030BD1F00000A7F
:104750000C290020CCDF002010B586B00124039482
:104760000C4C02940324ADF810409DF8124044F024
:10477000030404F0C3046FF387148DF8124000247F
:104780008DF81340089C059402AC00940CF02EFEAA
:1047900006B010BD606F050070B5B0F8423B8B42AB
:1047A00086B006462AD10CF0A1FE154A137806AD54
:1047B000012443F0100313700FF014FC05F80C4DA6
:1047C000104B1149009522463046FFF7C5FF9DF872
:1047D00014300E4943F00303002203F0F30362F3A5
:1047E00007138DF8143006AB039203F80D4D0492B5
:1047F000009322462B463046FFF7AEFF06B070BD51
:1048000080E10020CCDF00201F00030B1F00000907
:10481000104A114B12681A60104A12685A60104A06
:1048200012689A600F4A104B12681A600F4A126899
:104830005A600F4A12689A600E4A1268DA600E4A8D
:1048400012681A610D4A12685A610D4A12689A611B
:10485000704700BF50260020DCDA00208879050070
:1048600080A0050070A2050020DB0020A0A10500AB
:10487000D09F0500C070050070A70500306E0500D0
:104880008479050038B52A4B03F108024C330446FD
:104890000260C36000F65830FFF71CFC04F6443099
:1048A00005F0DCFB04F624301CF05CFC04F6083058
:1048B000FFF700FA04F52E6000F054F804F52B60C1
:1048C00001F0C2FD04F68C201CF09EFD04F2EC50B9
:1048D000FFF794FB04F5B56019F07AFD04F59060DC
:1048E00014F0C6FF04F57E7012F028FD04F5567032
:1048F00013F04CFF04F1E00504F54D7013F0AAFC31
:10490000284615F0D7FF04F1C80019F0FDFB04F1AB
:10491000300019F0E1F904F1180005F025FC04F16C
:10492000100005F01FFA20460CF028FC204638BD88
:104930009C6F050010B50446FFF7A4FF204629F040
:1049400033FC204610BD032303737047A0F1080019
:10495000F9E70223037301207047A0F10800FFF775
:10496000F8BF00000B4B10B503F10802026003F121
:10497000500270330446826040F81C3F0CF0FEFB8E
:1049800004F10800FCF72EFC2046FDF7FFF8204656
:1049900010BD00BF08700500A0F10800FFF7E2BFDE
:1049A000A0F11C00FFF7DEBF10B50446FFF7DAFFE9
:1049B000204629F0F9FB204610BDA0F11C00FFF7AE
:1049C000F3BFA0F10800FFF7EFBF000010B5054AE4
:1049D00002210446FDF73AF9C82806BF01202073DA
:1049E000002010BDB0700500A0F10800FFF7EEBF79
:1049F00010B5044A04460221FDF744F9002323734D
:104A000010BD00BFB0700500A0F10800FFF7F0BFB7
:104A100030B50D460749044603C985B002AB83E8AB
:104A2000030000932946044B2046FDF7ADF905B07D
:104A300030BD00BF00290020082900207FB5027B7F
:104A4000022A02D040F2F71230E0CB88B3F5545F6F
:104A500008D043F20152934226D1174B1B78C3F37F
:104A6000800305E0144B1B7883F01003C3F300139D
:104A70008DF80F300123ADF810309DF8123043F05F
:104A8000030303F0C3036FF387138DF81230002381
:104A90008DF813300DF10F03059304AB0093C8227A
:104AA000064BFDF771F903E04FF4CA72FFF7B0FF50
:104AB00007B05DF804FB00BF80E10020082900205A
:104AC00010B50468083420460121FCF7D7FF2046C2
